{
  "abi": [
    {
      "inputs": [
        {
          "internalType": "address",
          "name": "_owner",
          "type": "address"
        }
      ],
      "stateMutability": "nonpayable",
      "type": "constructor"
    },
    {
      "anonymous": false,
      "inputs": [
        {
          "indexed": true,
          "internalType": "address",
          "name": "user",
          "type": "address"
        },
        {
          "indexed": true,
          "internalType": "address",
          "name": "newOwner",
          "type": "address"
        }
      ],
      "name": "OwnerUpdated",
      "type": "event"
    },
    {
      "anonymous": false,
      "inputs": [
        {
          "indexed": false,
          "internalType": "contract AIMVault",
          "name": "vault",
          "type": "address"
        },
        {
          "indexed": false,
          "internalType": "contract ERC20",
          "name": "underlying",
          "type": "address"
        },
        {
          "indexed": false,
          "internalType": "address",
          "name": "cToken",
          "type": "address"
        }
      ],
      "name": "VaultDeployed",
      "type": "event"
    },
    {
      "inputs": [
        {
          "internalType": "contract ERC20",
          "name": "underlying",
          "type": "address"
        },
        {
          "internalType": "address",
          "name": "cToken",
          "type": "address"
        },
        {
          "internalType": "address",
          "name": "owner",
          "type": "address"
        }
      ],
      "name": "deployVault",
      "outputs": [
        {
          "internalType": "contract AIMVault",
          "name": "vault",
          "type": "address"
        }
      ],
      "stateMutability": "nonpayable",
      "type": "function"
    },
    {
      "inputs": [
        {
          "internalType": "contract ERC20",
          "name": "underlying",
          "type": "address"
        },
        {
          "internalType": "address",
          "name": "cToken",
          "type": "address"
        },
        {
          "internalType": "address",
          "name": "owner",
          "type": "address"
        }
      ],
      "name": "getVaultFromUnderlying",
      "outputs": [
        {
          "internalType": "contract AIMVault",
          "name": "",
          "type": "address"
        }
      ],
      "stateMutability": "view",
      "type": "function"
    },
    {
      "inputs": [
        {
          "internalType": "contract AIMVault",
          "name": "vault",
          "type": "address"
        }
      ],
      "name": "isVaultDeployed",
      "outputs": [
        {
          "internalType": "bool",
          "name": "",
          "type": "bool"
        }
      ],
      "stateMutability": "view",
      "type": "function"
    },
    {
      "inputs": [],
      "name": "owner",
      "outputs": [
        {
          "internalType": "address",
          "name": "",
          "type": "address"
        }
      ],
      "stateMutability": "view",
      "type": "function"
    },
    {
      "inputs": [
        {
          "internalType": "address",
          "name": "newOwner",
          "type": "address"
        }
      ],
      "name": "setOwner",
      "outputs": [],
      "stateMutability": "nonpayable",
      "type": "function"
    },
    {
      "inputs": [
        {
          "internalType": "contract ERC20",
          "name": "",
          "type": "address"
        }
      ],
      "name": "vaults",
      "outputs": [
        {
          "internalType": "contract AIMVault",
          "name": "",
          "type": "address"
        }
      ],
      "stateMutability": "view",
      "type": "function"
    }
  ],
  "bytecode": {
    "object": "0x608060405234801561001057600080fd5b506040516128b73803806128b783398101604081905261002f9161007e565b600080546001600160a01b0319166001600160a01b03831690811782556040518392907f8292fce18fa69edf4db7b94ea2e58241df0ae57f97e0a6c9b29067028bf92d76908290a350506100ae565b60006020828403121561009057600080fd5b81516001600160a01b03811681146100a757600080fd5b9392505050565b6127fa806100bd6000396000f3fe60806040523480156200001157600080fd5b50600436106200006a5760003560e01c806313af4035146200006f5780633e63576b14620000885780637d6020f414620000bc5780638da5cb5b14620000ed578063a622ee7c1462000101578063a6ca403a146200012d575b600080fd5b62000086620000803660046200043b565b62000144565b005b6200009f6200009936600462000462565b620001de565b6040516001600160a01b0390911681526020015b60405180910390f35b620000dc620000cd3660046200043b565b6001600160a01b03163b151590565b6040519015158152602001620000b3565b6000546200009f906001600160a01b031681565b6200009f620001123660046200043b565b6001602052600090815260409020546001600160a01b031681565b6200009f6200013e36600462000462565b62000311565b6000546001600160a01b03163314620001935760405162461bcd60e51b815260206004820152600c60248201526b15539055551213d49256915160a21b60448201526064015b60405180910390fd5b600080546001600160a01b0319166001600160a01b0383169081178255604051909133917f8292fce18fa69edf4db7b94ea2e58241df0ae57f97e0a6c9b29067028bf92d769190a350565b600080546001600160a01b031633146200022a5760405162461bcd60e51b815260206004820152600c60248201526b15539055551213d49256915160a21b60448201526064016200018a565b606084901b6001600160601b0319168484846040516200024a9062000414565b6001600160a01b039384168152918316602083015290911660408201526060018190604051809103906000f59050801580156200028b573d6000803e3d6000fd5b50604080516001600160a01b038381168252878116602083015286168183015290519192507f26ad9f07a47e389150a15677a365d64f42af0000b792c182ada6a3b5ab193a0b919081900360600190a16001600160a01b03938416600090815260016020526040902080546001600160a01b031916948216949094179093555090919050565b60006200040c6001600160f81b031930606087901b6001600160601b031916604051620003416020820162000414565b601f1982820381018352601f9091011660408181526001600160a01b038b811660208401528a8116918301919091528816606082015260800160408051601f19818403018152908290526200039a9291602001620004e6565b60405160208183030381529060405280519060200120604051602001620003f394939291906001600160f81b031994909416845260609290921b6001600160601b03191660018401526015830152603582015260550190565b6040516020818303038152906040528051906020012090565b949350505050565b6122c5806200050083390190565b6001600160a01b03811681146200043857600080fd5b50565b6000602082840312156200044e57600080fd5b81356200045b8162000422565b9392505050565b6000806000606084860312156200047857600080fd5b8335620004858162000422565b92506020840135620004978162000422565b91506040840135620004a98162000422565b809150509250925092565b6000815160005b81811015620004d75760208185018101518683015201620004bb565b50600093019283525090919050565b60006200040c620004f88386620004b4565b84620004b456fe6101406040523480156200001257600080fd5b50604051620022c5380380620022c583398101604081905262000035916200030d565b8083846001600160a01b03166306fdde036040518163ffffffff1660e01b8152600401600060405180830381865afa15801562000076573d6000803e3d6000fd5b505050506040513d6000823e601f3d908101601f19168201604052620000a091908101906200039d565b604051602001620000b2919062000455565b604051602081830303815290604052856001600160a01b03166395d89b416040518163ffffffff1660e01b8152600401600060405180830381865afa15801562000100573d6000803e3d6000fd5b505050506040513d6000823e601f3d908101601f191682016040526200012a91908101906200039d565b6040516020016200013c919062000493565b6040516020818303038152906040528181846001600160a01b031663313ce5676040518163ffffffff1660e01b8152600401602060405180830381865afa1580156200018c573d6000803e3d6000fd5b505050506040513d601f19601f82011682018060405250810190620001b29190620004bf565b6000620001c084826200057a565b506001620001cf83826200057a565b5060ff81166080524660a052620001e562000258565b60c052505050506001600160a01b0391821660e05250600680546001600160a01b03191691831691821790556040516000907f8292fce18fa69edf4db7b94ea2e58241df0ae57f97e0a6c9b29067028bf92d76908290a350506001600160a01b03918216610100521661012052620006c4565b60007f8b73c3c69bb8fe3d512ecc4cf759cc79239f7b179b0ffacaa9a75d522b39400f60006040516200028c919062000646565b6040805191829003822060208301939093528101919091527fc89efdaa54c0f20c7adf612882df0950f5a951637e0307cdcb4c672f298b8bc660608201524660808201523060a082015260c00160405160208183030381529060405280519060200120905090565b6001600160a01b03811681146200030a57600080fd5b50565b6000806000606084860312156200032357600080fd5b83516200033081620002f4565b60208501519093506200034381620002f4565b60408501519092506200035681620002f4565b809150509250925092565b634e487b7160e01b600052604160045260246000fd5b60005b83811015620003945781810151838201526020016200037a565b50506000910152565b600060208284031215620003b057600080fd5b81516001600160401b0380821115620003c857600080fd5b818401915084601f830112620003dd57600080fd5b815181811115620003f257620003f262000361565b604051601f8201601f19908116603f011681019083821181831017156200041d576200041d62000361565b816040528281528760208487010111156200043757600080fd5b6200044a83602083016020880162000377565b979650505050505050565b63020b4b6960e51b8152600082516200047681600485016020870162000377565b650815985d5b1d60d21b6004939091019283015250600a01919050565b6130bb60f11b815260008251620004b281600285016020870162000377565b9190910160020192915050565b600060208284031215620004d257600080fd5b815160ff81168114620004e457600080fd5b9392505050565b600181811c908216806200050057607f821691505b6020821081036200052157634e487b7160e01b600052602260045260246000fd5b50919050565b601f8211156200057557600081815260208120601f850160051c81016020861015620005505750805b601f850160051c820191505b8181101562000571578281556001016200055c565b5050505b505050565b81516001600160401b0381111562000596576200059662000361565b620005ae81620005a78454620004eb565b8462000527565b602080601f831160018114620005e65760008415620005cd5750858301515b600019600386901b1c1916600185901b17855562000571565b600085815260208120601f198616915b828110156200061757888601518255948401946001909101908401620005f6565b5085821015620006365787850151600019600388901b60f8161c191681555b5050505050600190811b01905550565b60008083546200065681620004eb565b600182811680156200067157600181146200068757620006b8565b60ff1984168752821515830287019450620006b8565b8760005260208060002060005b85811015620006af5781548a82015290840190820162000694565b50505082870194505b50929695505050505050565b60805160a05160c05160e0516101005161012051611b5d620007686000396000818161039d0152818161063f015281816106c5015281816111f601528181611434015281816114e701526115f301526000818161049901528181610b2b015261146301526000818161033601528181610a8a01528181610bdf01528181610dda0152610f31015260006109de015260006109ae015260006102f50152611b5d6000f3fe608060405234801561001057600080fd5b506004361061021c5760003560e01c80637ecebe0011610125578063c5d664c6116100ad578063d505accf1161007c578063d505accf146104e1578063d905777e146104f4578063da55602b1461051d578063dd62ed3e14610525578063ef8b30f71461055057600080fd5b8063c5d664c614610494578063c63d75b614610370578063c6e6f592146104bb578063ce96cb77146104ce57600080fd5b806395d89b41116100f457806395d89b4114610440578063a9059cbb14610448578063b3d7f6b91461045b578063b460af941461046e578063ba0876521461048157600080fd5b80637ecebe00146103f2578063841219e5146104125780638da5cb5b1461041a57806394bf804d1461042d57600080fd5b806323b872dd116101a8578063402d267d11610177578063402d267d146103705780634cdad5061461038557806369e527da146103985780636e553f65146103bf57806370a08231146103d257600080fd5b806323b872dd146102dd578063313ce567146102f05780633644e5151461032957806338d52e0f1461033157600080fd5b8063095ea7b3116101ef578063095ea7b3146102815780630a28a477146102a457806313af4035146102b757806318160ddd146102cc57806321f56a57146102d557600080fd5b806301e1d1141461022157806306fdde031461023c57806307a2d13a1461025157806308bf795214610264575b600080fd5b610229610563565b6040519081526020015b60405180910390f35b61024461057f565b604051610233919061178c565b61022961025f3660046117da565b61060d565b61026c61063a565b60408051928352602083019190915201610233565b61029461028f36600461180f565b61074d565b6040519015158152602001610233565b6102296102b23660046117da565b6107ba565b6102ca6102c5366004611839565b6107da565b005b61022960025481565b6102ca610874565b6102946102eb366004611854565b6108ca565b6103177f000000000000000000000000000000000000000000000000000000000000000081565b60405160ff9091168152602001610233565b6102296109aa565b6103587f000000000000000000000000000000000000000000000000000000000000000081565b6040516001600160a01b039091168152602001610233565b61022961037e366004611839565b5060001990565b6102296103933660046117da565b610a00565b6103587f000000000000000000000000000000000000000000000000000000000000000081565b6102296103cd366004611890565b610a0b565b6102296103e0366004611839565b60036020526000908152604090205481565b610229610400366004611839565b60056020526000908152604090205481565b610229610b13565b600654610358906001600160a01b031681565b61022961043b366004611890565b610b9e565b610244610c61565b61029461045636600461180f565b610c6e565b6102296104693660046117da565b610cd4565b61022961047c3660046118bc565b610cf3565b61022961048f3660046118bc565b610e01565b6103587f000000000000000000000000000000000000000000000000000000000000000081565b6102296104c93660046117da565b610f58565b6102296104dc366004611839565b610f78565b6102ca6104ef3660046118f8565b610f9a565b610229610502366004611839565b6001600160a01b031660009081526003602052604090205490565b6102296111de565b61022961053336600461196b565b600460209081526000928352604080842090915290825290205481565b61022961055e3660046117da565b611247565b600061056d610b13565b60075461057a91906119ab565b905090565b6000805461058c906119be565b80601f01602080910402602001604051908101604052809291908181526020018280546105b8906119be565b80156106055780601f106105da57610100808354040283529160200191610605565b820191906000526020600020905b8154815290600101906020018083116105e857829003601f168201915b505050505081565b60025460009080156106315761062c610624610563565b849083611252565b610633565b825b9392505050565b6000807f00000000000000000000000000000000000000000000000000000000000000006001600160a01b031663bd6d894d6040518163ffffffff1660e01b81526004016020604051808303816000875af115801561069d573d6000803e3d6000fd5b505050506040513d601f19601f820116820180604052508101906106c191906119f8565b91507f00000000000000000000000000000000000000000000000000000000000000006001600160a01b031663ae9d70b06040518163ffffffff1660e01b81526004016020604051808303816000875af1158015610723573d6000803e3d6000fd5b505050506040513d601f19601f8201168201806040525081019061074791906119f8565b90509091565b3360008181526004602090815260408083206001600160a01b038716808552925280832085905551919290917f8c5be1e5ebec7d5bd14f71427d1e84f3dd0314c0f7b2291e5b200ac8c7c3b925906107a89086815260200190565b60405180910390a35060015b92915050565b60025460009080156106315761062c816107d2610563565b859190611271565b6006546001600160a01b031633146108285760405162461bcd60e51b815260206004820152600c60248201526b15539055551213d49256915160a21b60448201526064015b60405180910390fd5b600680546001600160a01b0319166001600160a01b03831690811790915560405133907f8292fce18fa69edf4db7b94ea2e58241df0ae57f97e0a6c9b29067028bf92d7690600090a350565b6006546001600160a01b031633146108bd5760405162461bcd60e51b815260206004820152600c60248201526b15539055551213d49256915160a21b604482015260640161081f565b6108c56111de565b600755565b6001600160a01b03831660009081526004602090815260408083203384529091528120546000198114610926576109018382611a11565b6001600160a01b03861660009081526004602090815260408083203384529091529020555b6001600160a01b0385166000908152600360205260408120805485929061094e908490611a11565b90915550506001600160a01b0380851660008181526003602052604090819020805487019055519091871690600080516020611b08833981519152906109979087815260200190565b60405180910390a3506001949350505050565b60007f000000000000000000000000000000000000000000000000000000000000000046146109db5761057a61129f565b507f000000000000000000000000000000000000000000000000000000000000000090565b60006107b48261060d565b6000610a1683611247565b905080600003610a565760405162461bcd60e51b815260206004820152600b60248201526a5a45524f5f53484152455360a81b604482015260640161081f565b6000610a63600285611a24565b90508060076000828254610a7791906119ab565b90915550610ab290506001600160a01b037f000000000000000000000000000000000000000000000000000000000000000016333087611339565b610abc83836113c3565b60408051858152602081018490526001600160a01b0385169133917fdcbc1c05240f31ff3ad067ef1ee35ce4997762752e3a095284754544f4c709d7910160405180910390a3610b0c818361141d565b5092915050565b6040516370a0823160e01b81523060048201526000907f00000000000000000000000000000000000000000000000000000000000000006001600160a01b0316906370a0823190602401602060405180830381865afa158015610b7a573d6000803e3d6000fd5b505050506040513d601f19601f8201168201806040525081019061057a91906119f8565b6000610ba983610cd4565b90506000610bb8600283611a24565b90508060076000828254610bcc91906119ab565b90915550610c0790506001600160a01b037f000000000000000000000000000000000000000000000000000000000000000016333085611339565b610c1183856113c3565b60408051838152602081018690526001600160a01b0385169133917fdcbc1c05240f31ff3ad067ef1ee35ce4997762752e3a095284754544f4c709d7910160405180910390a3610b0c818561141d565b6001805461058c906119be565b33600090815260036020526040812080548391908390610c8f908490611a11565b90915550506001600160a01b03831660008181526003602052604090819020805485019055513390600080516020611b08833981519152906107a89086815260200190565b60025460009080156106315761062c610ceb610563565b849083611271565b6000610cfe846107ba565b9050336001600160a01b03831614610d6e576001600160a01b03821660009081526004602090815260408083203384529091529020546000198114610d6c57610d478282611a11565b6001600160a01b03841660009081526004602090815260408083203384529091529020555b505b610d7884826115a4565b610d8282826116b2565b60408051858152602081018390526001600160a01b03808516929086169133917ffbde797d201c681b91056529119e0b02407c7bb96a4a2c75c01fc9667232c8db910160405180910390a46106336001600160a01b037f0000000000000000000000000000000000000000000000000000000000000000168486611714565b6000336001600160a01b03831614610e71576001600160a01b03821660009081526004602090815260408083203384529091529020546000198114610e6f57610e4a8582611a11565b6001600160a01b03841660009081526004602090815260408083203384529091529020555b505b610e796111de565b600755610e8584610a00565b905080600003610ec55760405162461bcd60e51b815260206004820152600b60248201526a5a45524f5f41535345545360a81b604482015260640161081f565b610ecf81856115a4565b610ed982856116b2565b60408051828152602081018690526001600160a01b03808516929086169133917ffbde797d201c681b91056529119e0b02407c7bb96a4a2c75c01fc9667232c8db910160405180910390a46106336001600160a01b037f0000000000000000000000000000000000000000000000000000000000000000168483611714565b60025460009080156106315761062c81610f70610563565b859190611252565b6001600160a01b0381166000908152600360205260408120546107b49061060d565b42841015610fea5760405162461bcd60e51b815260206004820152601760248201527f5045524d49545f444541444c494e455f45585049524544000000000000000000604482015260640161081f565b60006001610ff66109aa565b6001600160a01b038a811660008181526005602090815260409182902080546001810190915582517f6e71edae12b1b97f4d1f60370fef10105fa2faae0126114a169c64845d6126c98184015280840194909452938d166060840152608083018c905260a083019390935260c08083018b90528151808403909101815260e08301909152805192019190912061190160f01b6101008301526101028201929092526101228101919091526101420160408051601f198184030181528282528051602091820120600084529083018083525260ff871690820152606081018590526080810184905260a0016020604051602081039080840390855afa158015611102573d6000803e3d6000fd5b5050604051601f1901519150506001600160a01b038116158015906111385750876001600160a01b0316816001600160a01b0316145b6111755760405162461bcd60e51b815260206004820152600e60248201526d24a72b20a624a22fa9a4a3a722a960911b604482015260640161081f565b6001600160a01b0390811660009081526004602090815260408083208a8516808552908352928190208990555188815291928a16917f8c5be1e5ebec7d5bd14f71427d1e84f3dd0314c0f7b2291e5b200ac8c7c3b925910160405180910390a350505050505050565b604051633af9e66960e01b81523060048201526000907f00000000000000000000000000000000000000000000000000000000000000006001600160a01b031690633af9e669906024016020604051808303816000875af1158015610b7a573d6000803e3d6000fd5b60006107b482610f58565b82820281151584158583048514171661126a57600080fd5b0492915050565b82820281151584158583048514171661128957600080fd5b6001826001830304018115150290509392505050565b60007f8b73c3c69bb8fe3d512ecc4cf759cc79239f7b179b0ffacaa9a75d522b39400f60006040516112d19190611a46565b6040805191829003822060208301939093528101919091527fc89efdaa54c0f20c7adf612882df0950f5a951637e0307cdcb4c672f298b8bc660608201524660808201523060a082015260c00160405160208183030381529060405280519060200120905090565b60006040516323b872dd60e01b81528460048201528360248201528260448201526020600060648360008a5af13d15601f3d11600160005114161716915050806113bc5760405162461bcd60e51b81526020600482015260146024820152731514905394d1915497d19493d357d1905253115160621b604482015260640161081f565b5050505050565b80600260008282546113d591906119ab565b90915550506001600160a01b038216600081815260036020908152604080832080548601905551848152600080516020611b0883398151915291015b60405180910390a35050565b60405163095ea7b360e01b81526001600160a01b037f000000000000000000000000000000000000000000000000000000000000000081166004830152602482018490527f0000000000000000000000000000000000000000000000000000000000000000169063095ea7b3906044016020604051808303816000875af11580156114ac573d6000803e3d6000fd5b505050506040513d601f19601f820116820180604052508101906114d09190611ae5565b5060405163140e25ad60e31b8152600481018390527f00000000000000000000000000000000000000000000000000000000000000006001600160a01b03169063a0712d68906024016020604051808303816000875af1158015611538573d6000803e3d6000fd5b505050506040513d601f19601f8201168201806040525081019061155c91906119f8565b156115a05760405162461bcd60e51b815260206004820152601460248201527310d3d3540e8811195c1bdcda5d0811985a5b195960621b604482015260640161081f565b5050565b60006115ae610b13565b9050828110156116ad5760006115c48285611a11565b905080600760008282546115d89190611a11565b909155505060405163852a12e360e01b8152600481018290527f00000000000000000000000000000000000000000000000000000000000000006001600160a01b03169063852a12e3906024016020604051808303816000875af1158015611644573d6000803e3d6000fd5b505050506040513d601f19601f8201168201806040525081019061166891906119f8565b156116ab5760405162461bcd60e51b815260206004820152601360248201527210d3d3540e8814995919595b4819985a5b1959606a1b604482015260640161081f565b505b505050565b6001600160a01b038216600090815260036020526040812080548392906116da908490611a11565b90915550506002805482900390556040518181526000906001600160a01b03841690600080516020611b0883398151915290602001611411565b600060405163a9059cbb60e01b8152836004820152826024820152602060006044836000895af13d15601f3d11600160005114161716915050806116ab5760405162461bcd60e51b815260206004820152600f60248201526e1514905394d1915497d19052531151608a1b604482015260640161081f565b600060208083528351808285015260005b818110156117b95785810183015185820160400152820161179d565b506000604082860101526040601f19601f8301168501019250505092915050565b6000602082840312156117ec57600080fd5b5035919050565b80356001600160a01b038116811461180a57600080fd5b919050565b6000806040838503121561182257600080fd5b61182b836117f3565b946020939093013593505050565b60006020828403121561184b57600080fd5b610633826117f3565b60008060006060848603121561186957600080fd5b611872846117f3565b9250611880602085016117f3565b9150604084013590509250925092565b600080604083850312156118a357600080fd5b823591506118b3602084016117f3565b90509250929050565b6000806000606084860312156118d157600080fd5b833592506118e1602085016117f3565b91506118ef604085016117f3565b90509250925092565b600080600080600080600060e0888a03121561191357600080fd5b61191c886117f3565b965061192a602089016117f3565b95506040880135945060608801359350608088013560ff8116811461194e57600080fd5b9699959850939692959460a0840135945060c09093013592915050565b6000806040838503121561197e57600080fd5b611987836117f3565b91506118b3602084016117f3565b634e487b7160e01b600052601160045260246000fd5b808201808211156107b4576107b4611995565b600181811c908216806119d257607f821691505b6020821081036119f257634e487b7160e01b600052602260045260246000fd5b50919050565b600060208284031215611a0a57600080fd5b5051919050565b818103818111156107b4576107b4611995565b600082611a4157634e487b7160e01b600052601260045260246000fd5b500490565b600080835481600182811c915080831680611a6257607f831692505b60208084108203611a8157634e487b7160e01b86526022600452602486fd5b818015611a955760018114611aaa57611ad7565b60ff1986168952841515850289019650611ad7565b60008a81526020902060005b86811015611acf5781548b820152908501908301611ab6565b505084890196505b509498975050505050505050565b600060208284031215611af757600080fd5b8151801515811461063357600080fdfeddf252ad1be2c89b69c2b068fc378daa952ba7f163c4a11628f55a4df523b3efa2646970667358221220c17d21c87246b8f10b03ed29828358960b1f3f30a700b73403b49c1f1bee41e164736f6c63430008100033a264697066735822122088278150865cca8909252f5fc18389ae5c1493792b13f14460e8a3b267a0310564736f6c63430008100033",
    "linkReferences": {}
  },
  "methodIdentifiers": {
    "deployVault(address,address,address)": "3e63576b",
    "getVaultFromUnderlying(address,address,address)": "a6ca403a",
    "isVaultDeployed(address)": "7d6020f4",
    "owner()": "8da5cb5b",
    "setOwner(address)": "13af4035",
    "vaults(address)": "a622ee7c"
  },
  "id": 19
}