{
  "abi": [
    {
      "inputs": [
        {
          "internalType": "address",
          "name": "_owner",
          "type": "address"
        }
      ],
      "stateMutability": "nonpayable",
      "type": "constructor"
    },
    {
      "anonymous": false,
      "inputs": [
        {
          "indexed": true,
          "internalType": "address",
          "name": "user",
          "type": "address"
        },
        {
          "indexed": true,
          "internalType": "address",
          "name": "newOwner",
          "type": "address"
        }
      ],
      "name": "OwnerUpdated",
      "type": "event"
    },
    {
      "anonymous": false,
      "inputs": [
        {
          "indexed": false,
          "internalType": "contract AIMVault",
          "name": "vault",
          "type": "address"
        },
        {
          "indexed": false,
          "internalType": "contract ERC20",
          "name": "underlying",
          "type": "address"
        },
        {
          "indexed": false,
          "internalType": "address",
          "name": "cToken",
          "type": "address"
        }
      ],
      "name": "VaultDeployed",
      "type": "event"
    },
    {
      "inputs": [
        {
          "internalType": "contract ERC20",
          "name": "underlying",
          "type": "address"
        },
        {
          "internalType": "address",
          "name": "cToken",
          "type": "address"
        }
      ],
      "name": "deployVault",
      "outputs": [
        {
          "internalType": "contract AIMVault",
          "name": "vault",
          "type": "address"
        }
      ],
      "stateMutability": "nonpayable",
      "type": "function"
    },
    {
      "inputs": [
        {
          "internalType": "contract ERC20",
          "name": "underlying",
          "type": "address"
        },
        {
          "internalType": "address",
          "name": "cToken",
          "type": "address"
        }
      ],
      "name": "getVaultFromUnderlying",
      "outputs": [
        {
          "internalType": "contract AIMVault",
          "name": "",
          "type": "address"
        }
      ],
      "stateMutability": "view",
      "type": "function"
    },
    {
      "inputs": [
        {
          "internalType": "contract AIMVault",
          "name": "vault",
          "type": "address"
        }
      ],
      "name": "isVaultDeployed",
      "outputs": [
        {
          "internalType": "bool",
          "name": "",
          "type": "bool"
        }
      ],
      "stateMutability": "view",
      "type": "function"
    },
    {
      "inputs": [],
      "name": "owner",
      "outputs": [
        {
          "internalType": "address",
          "name": "",
          "type": "address"
        }
      ],
      "stateMutability": "view",
      "type": "function"
    },
    {
      "inputs": [
        {
          "internalType": "address",
          "name": "newOwner",
          "type": "address"
        }
      ],
      "name": "setOwner",
      "outputs": [],
      "stateMutability": "nonpayable",
      "type": "function"
    },
    {
      "inputs": [
        {
          "internalType": "contract ERC20",
          "name": "",
          "type": "address"
        }
      ],
      "name": "vaults",
      "outputs": [
        {
          "internalType": "contract AIMVault",
          "name": "",
          "type": "address"
        }
      ],
      "stateMutability": "view",
      "type": "function"
    }
  ],
  "bytecode": {
    "object": "0x608060405234801561001057600080fd5b5060405161274138038061274183398101604081905261002f9161007e565b600080546001600160a01b0319166001600160a01b03831690811782556040518392907f8292fce18fa69edf4db7b94ea2e58241df0ae57f97e0a6c9b29067028bf92d76908290a350506100ae565b60006020828403121561009057600080fd5b81516001600160a01b03811681146100a757600080fd5b9392505050565b612684806100bd6000396000f3fe60806040523480156200001157600080fd5b50600436106200006a5760003560e01c806313af4035146200006f57806315006fac1462000088578063338919c814620000bc5780637d6020f414620000d35780638da5cb5b1462000104578063a622ee7c1462000118575b600080fd5b620000866200008036600462000422565b62000144565b005b6200009f6200009936600462000442565b620001de565b6040516001600160a01b0390911681526020015b60405180910390f35b6200009f620000cd36600462000442565b620002d5565b620000f3620000e436600462000422565b6001600160a01b03163b151590565b6040519015158152602001620000b3565b6000546200009f906001600160a01b031681565b6200009f6200012936600462000422565b6001602052600090815260409020546001600160a01b031681565b6000546001600160a01b03163314620001935760405162461bcd60e51b815260206004820152600c60248201526b15539055551213d49256915160a21b60448201526064015b60405180910390fd5b600080546001600160a01b0319166001600160a01b0383169081178255604051909133917f8292fce18fa69edf4db7b94ea2e58241df0ae57f97e0a6c9b29067028bf92d769190a350565b6000620002ce6001600160f81b031930606086901b6001600160601b0319166040516200020e60208201620003fb565b601f1982820381018352601f9091011660408181526001600160a01b038a8116602084015289169082015260600160408051601f19818403018152908290526200025c9291602001620004be565b60405160208183030381529060405280519060200120604051602001620002b594939291906001600160f81b031994909416845260609290921b6001600160601b03191660018401526015830152603582015260550190565b6040516020818303038152906040528051906020012090565b9392505050565b600080546001600160a01b03163314620003215760405162461bcd60e51b815260206004820152600c60248201526b15539055551213d49256915160a21b60448201526064016200018a565b606083901b6001600160601b03191683836040516200034090620003fb565b6001600160a01b039283168152911660208201526040018190604051809103906000f590508015801562000378573d6000803e3d6000fd5b50604080516001600160a01b038381168252868116602083015285168183015290519192507f26ad9f07a47e389150a15677a365d64f42af0000b792c182ada6a3b5ab193a0b919081900360600190a16001600160a01b03928316600090815260016020526040902080546001600160a01b031916938216939093179092555090565b61216f80620004e083390190565b6001600160a01b03811681146200041f57600080fd5b50565b6000602082840312156200043557600080fd5b8135620002ce8162000409565b600080604083850312156200045657600080fd5b8235620004638162000409565b91506020830135620004758162000409565b809150509250929050565b6000815160005b81811015620004a3576020818501810151868301520162000487565b81811115620004b3576000828601525b509290920192915050565b6000620004d7620004d0838662000480565b8462000480565b94935050505056fe6101406040523480156200001257600080fd5b506040516200216f3803806200216f8339810160408190526200003591620002c1565b81826001600160a01b03166306fdde036040518163ffffffff1660e01b8152600401600060405180830381865afa15801562000075573d6000803e3d6000fd5b505050506040513d6000823e601f3d908101601f191682016040526200009f919081019062000349565b604051602001620000b1919062000401565b604051602081830303815290604052836001600160a01b03166395d89b416040518163ffffffff1660e01b8152600401600060405180830381865afa158015620000ff573d6000803e3d6000fd5b505050506040513d6000823e601f3d908101601f1916820160405262000129919081019062000349565b6040516020016200013b91906200043f565b6040516020818303038152906040528181846001600160a01b031663313ce5676040518163ffffffff1660e01b8152600401602060405180830381865afa1580156200018b573d6000803e3d6000fd5b505050506040513d601f19601f82011682018060405250810190620001b191906200046b565b6000620001bf848262000526565b506001620001ce838262000526565b5060ff81166080524660a052620001e46200020c565b60c0525050506001600160a01b0392831660e052505091821661010052166101205262000670565b60007f8b73c3c69bb8fe3d512ecc4cf759cc79239f7b179b0ffacaa9a75d522b39400f6000604051620002409190620005f2565b6040805191829003822060208301939093528101919091527fc89efdaa54c0f20c7adf612882df0950f5a951637e0307cdcb4c672f298b8bc660608201524660808201523060a082015260c00160405160208183030381529060405280519060200120905090565b6001600160a01b0381168114620002be57600080fd5b50565b60008060408385031215620002d557600080fd5b8251620002e281620002a8565b6020840151909250620002f581620002a8565b809150509250929050565b634e487b7160e01b600052604160045260246000fd5b60005b838110156200033357818101518382015260200162000319565b8381111562000343576000848401525b50505050565b6000602082840312156200035c57600080fd5b81516001600160401b03808211156200037457600080fd5b818401915084601f8301126200038957600080fd5b8151818111156200039e576200039e62000300565b604051601f8201601f19908116603f01168101908382118183101715620003c957620003c962000300565b81604052828152876020848701011115620003e357600080fd5b620003f683602083016020880162000316565b979650505050505050565b63020b4b6960e51b8152600082516200042281600485016020870162000316565b650815985d5b1d60d21b6004939091019283015250600a01919050565b6130bb60f11b8152600082516200045e81600285016020870162000316565b9190910160020192915050565b6000602082840312156200047e57600080fd5b815160ff811681146200049057600080fd5b9392505050565b600181811c90821680620004ac57607f821691505b602082108103620004cd57634e487b7160e01b600052602260045260246000fd5b50919050565b601f8211156200052157600081815260208120601f850160051c81016020861015620004fc5750805b601f850160051c820191505b818110156200051d5782815560010162000508565b5050505b505050565b81516001600160401b0381111562000542576200054262000300565b6200055a8162000553845462000497565b84620004d3565b602080601f831160018114620005925760008415620005795750858301515b600019600386901b1c1916600185901b1785556200051d565b600085815260208120601f198616915b82811015620005c357888601518255948401946001909101908401620005a2565b5085821015620005e25787850151600019600388901b60f8161c191681555b5050505050600190811b01905550565b6000808354620006028162000497565b600182811680156200061d5760018114620006335762000664565b60ff198416875282151583028701945062000664565b8760005260208060002060005b858110156200065b5781548a82015290840190820162000640565b50505082870194505b50929695505050505050565b60805160a05160c05160e0516101005161012051611a5b6200071460003960008181610375015281816106180152818161069e015281816110f301528181611331015281816113e401526114dd01526000818161046701528181610a1d015261136001526000818161030e0152818161097c01528181610ad101528181610cd70152610e2e015260006108c601526000610896015260006102cd0152611a5b6000f3fe608060405234801561001057600080fd5b50600436106102115760003560e01c8063841219e511610125578063c63d75b6116100ad578063d905777e1161007c578063d905777e146104c4578063da55602b146104ed578063dd62ed3e146104f5578063ecad956514610520578063ef8b30f71461052957600080fd5b8063c63d75b614610348578063c6e6f59214610489578063ce96cb771461049c578063d505accf146104af57600080fd5b8063b3d7f6b9116100f4578063b3d7f6b914610420578063b460af9414610433578063ba08765214610446578063c55c313c14610459578063c5d664c61461046257600080fd5b8063841219e5146103ea57806394bf804d146103f257806395d89b4114610405578063a9059cbb1461040d57600080fd5b8063313ce567116101a85780634cdad506116101775780634cdad5061461035d57806369e527da146103705780636e553f651461039757806370a08231146103aa5780637ecebe00146103ca57600080fd5b8063313ce567146102c85780633644e5151461030157806338d52e0f14610309578063402d267d1461034857600080fd5b8063095ea7b3116101e4578063095ea7b3146102765780630a28a4771461029957806318160ddd146102ac57806323b872dd146102b557600080fd5b806301e1d1141461021657806306fdde031461023157806307a2d13a1461024657806308bf795214610259575b600080fd5b61021e61053c565b6040519081526020015b60405180910390f35b610239610558565b604051610228919061167a565b61021e6102543660046116cf565b6105e6565b610261610613565b60408051928352602083019190915201610228565b610289610284366004611704565b610726565b6040519015158152602001610228565b61021e6102a73660046116cf565b610792565b61021e60025481565b6102896102c336600461172e565b6107b2565b6102ef7f000000000000000000000000000000000000000000000000000000000000000081565b60405160ff9091168152602001610228565b61021e610892565b6103307f000000000000000000000000000000000000000000000000000000000000000081565b6040516001600160a01b039091168152602001610228565b61021e61035636600461176a565b5060001990565b61021e61036b3660046116cf565b6108e8565b6103307f000000000000000000000000000000000000000000000000000000000000000081565b61021e6103a5366004611785565b6108f9565b61021e6103b836600461176a565b60036020526000908152604090205481565b61021e6103d836600461176a565b60056020526000908152604090205481565b61021e610a05565b61021e610400366004611785565b610a90565b610239610b53565b61028961041b366004611704565b610b60565b61021e61042e3660046116cf565b610bc6565b61021e6104413660046117b1565b610be5565b61021e6104543660046117b1565b610cfe565b61021e60065481565b6103307f000000000000000000000000000000000000000000000000000000000000000081565b61021e6104973660046116cf565b610e55565b61021e6104aa36600461176a565b610e75565b6104c26104bd3660046117ed565b610e97565b005b61021e6104d236600461176a565b6001600160a01b031660009081526003602052604090205490565b61021e6110db565b61021e610503366004611860565b600460209081526000928352604080842090915290825290205481565b61021e60075481565b61021e6105373660046116cf565b611144565b6000610546610a05565b60075461055391906118a0565b905090565b60008054610565906118b8565b80601f0160208091040260200160405190810160405280929190818152602001828054610591906118b8565b80156105de5780601f106105b3576101008083540402835291602001916105de565b820191906000526020600020905b8154815290600101906020018083116105c157829003601f168201915b505050505081565b600254600090801561060a576106056105fd61053c565b84908361114f565b61060c565b825b9392505050565b6000807f00000000000000000000000000000000000000000000000000000000000000006001600160a01b031663bd6d894d6040518163ffffffff1660e01b81526004016020604051808303816000875af1158015610676573d6000803e3d6000fd5b505050506040513d601f19601f8201168201806040525081019061069a91906118f2565b91507f00000000000000000000000000000000000000000000000000000000000000006001600160a01b031663ae9d70b06040518163ffffffff1660e01b81526004016020604051808303816000875af11580156106fc573d6000803e3d6000fd5b505050506040513d601f19601f8201168201806040525081019061072091906118f2565b90509091565b3360008181526004602090815260408083206001600160a01b038716808552925280832085905551919290917f8c5be1e5ebec7d5bd14f71427d1e84f3dd0314c0f7b2291e5b200ac8c7c3b925906107819086815260200190565b60405180910390a350600192915050565b600254600090801561060a57610605816107aa61053c565b85919061116e565b6001600160a01b0383166000908152600460209081526040808320338452909152812054600019811461080e576107e9838261190b565b6001600160a01b03861660009081526004602090815260408083203384529091529020555b6001600160a01b0385166000908152600360205260408120805485929061083690849061190b565b90915550506001600160a01b0380851660008181526003602052604090819020805487019055519091871690600080516020611a068339815191529061087f9087815260200190565b60405180910390a3506001949350505050565b60007f000000000000000000000000000000000000000000000000000000000000000046146108c35761055361119c565b507f000000000000000000000000000000000000000000000000000000000000000090565b60006108f3826105e6565b92915050565b600080610907600285611922565b9050806007600082825461091b91906118a0565b9091555061092a905084611144565b91508160000361096f5760405162461bcd60e51b815260206004820152600b60248201526a5a45524f5f53484152455360a81b60448201526064015b60405180910390fd5b6109a46001600160a01b037f000000000000000000000000000000000000000000000000000000000000000016333087611236565b6109ae83836112c0565b60408051858152602081018490526001600160a01b0385169133917fdcbc1c05240f31ff3ad067ef1ee35ce4997762752e3a095284754544f4c709d7910160405180910390a36109fe818361131a565b5092915050565b6040516370a0823160e01b81523060048201526000907f00000000000000000000000000000000000000000000000000000000000000006001600160a01b0316906370a0823190602401602060405180830381865afa158015610a6c573d6000803e3d6000fd5b505050506040513d601f19601f8201168201806040525081019061055391906118f2565b6000610a9b83610bc6565b90506000610aaa600283611922565b90508060076000828254610abe91906118a0565b90915550610af990506001600160a01b037f000000000000000000000000000000000000000000000000000000000000000016333085611236565b610b0383856112c0565b60408051838152602081018690526001600160a01b0385169133917fdcbc1c05240f31ff3ad067ef1ee35ce4997762752e3a095284754544f4c709d7910160405180910390a36109fe818561131a565b60018054610565906118b8565b33600090815260036020526040812080548391908390610b8190849061190b565b90915550506001600160a01b03831660008181526003602052604090819020805485019055513390600080516020611a06833981519152906107819086815260200190565b600254600090801561060a57610605610bdd61053c565b84908361116e565b6000610bef6110db565b600755610bfb84610792565b9050336001600160a01b03831614610c6b576001600160a01b03821660009081526004602090815260408083203384529091529020546000198114610c6957610c44828261190b565b6001600160a01b03841660009081526004602090815260408083203384529091529020555b505b610c7584826114a1565b610c7f828261159a565b60408051858152602081018390526001600160a01b03808516929086169133917ffbde797d201c681b91056529119e0b02407c7bb96a4a2c75c01fc9667232c8db910160405180910390a461060c6001600160a01b037f00000000000000000000000000000000000000000000000000000000000000001684866115fc565b6000336001600160a01b03831614610d6e576001600160a01b03821660009081526004602090815260408083203384529091529020546000198114610d6c57610d47858261190b565b6001600160a01b03841660009081526004602090815260408083203384529091529020555b505b610d766110db565b600755610d82846108e8565b905080600003610dc25760405162461bcd60e51b815260206004820152600b60248201526a5a45524f5f41535345545360a81b6044820152606401610966565b610dcc81856114a1565b610dd6828561159a565b60408051828152602081018690526001600160a01b03808516929086169133917ffbde797d201c681b91056529119e0b02407c7bb96a4a2c75c01fc9667232c8db910160405180910390a461060c6001600160a01b037f00000000000000000000000000000000000000000000000000000000000000001684836115fc565b600254600090801561060a5761060581610e6d61053c565b85919061114f565b6001600160a01b0381166000908152600360205260408120546108f3906105e6565b42841015610ee75760405162461bcd60e51b815260206004820152601760248201527f5045524d49545f444541444c494e455f455850495245440000000000000000006044820152606401610966565b60006001610ef3610892565b6001600160a01b038a811660008181526005602090815260409182902080546001810190915582517f6e71edae12b1b97f4d1f60370fef10105fa2faae0126114a169c64845d6126c98184015280840194909452938d166060840152608083018c905260a083019390935260c08083018b90528151808403909101815260e08301909152805192019190912061190160f01b6101008301526101028201929092526101228101919091526101420160408051601f198184030181528282528051602091820120600084529083018083525260ff871690820152606081018590526080810184905260a0016020604051602081039080840390855afa158015610fff573d6000803e3d6000fd5b5050604051601f1901519150506001600160a01b038116158015906110355750876001600160a01b0316816001600160a01b0316145b6110725760405162461bcd60e51b815260206004820152600e60248201526d24a72b20a624a22fa9a4a3a722a960911b6044820152606401610966565b6001600160a01b0390811660009081526004602090815260408083208a8516808552908352928190208990555188815291928a16917f8c5be1e5ebec7d5bd14f71427d1e84f3dd0314c0f7b2291e5b200ac8c7c3b925910160405180910390a350505050505050565b604051633af9e66960e01b81523060048201526000907f00000000000000000000000000000000000000000000000000000000000000006001600160a01b031690633af9e669906024016020604051808303816000875af1158015610a6c573d6000803e3d6000fd5b60006108f382610e55565b82820281151584158583048514171661116757600080fd5b0492915050565b82820281151584158583048514171661118657600080fd5b6001826001830304018115150290509392505050565b60007f8b73c3c69bb8fe3d512ecc4cf759cc79239f7b179b0ffacaa9a75d522b39400f60006040516111ce9190611944565b6040805191829003822060208301939093528101919091527fc89efdaa54c0f20c7adf612882df0950f5a951637e0307cdcb4c672f298b8bc660608201524660808201523060a082015260c00160405160208183030381529060405280519060200120905090565b60006040516323b872dd60e01b81528460048201528360248201528260448201526020600060648360008a5af13d15601f3d11600160005114161716915050806112b95760405162461bcd60e51b81526020600482015260146024820152731514905394d1915497d19493d357d1905253115160621b6044820152606401610966565b5050505050565b80600260008282546112d291906118a0565b90915550506001600160a01b038216600081815260036020908152604080832080548601905551848152600080516020611a0683398151915291015b60405180910390a35050565b60405163095ea7b360e01b81526001600160a01b037f000000000000000000000000000000000000000000000000000000000000000081166004830152602482018490527f0000000000000000000000000000000000000000000000000000000000000000169063095ea7b3906044016020604051808303816000875af11580156113a9573d6000803e3d6000fd5b505050506040513d601f19601f820116820180604052508101906113cd91906119e3565b5060405163140e25ad60e31b8152600481018390527f00000000000000000000000000000000000000000000000000000000000000006001600160a01b03169063a0712d68906024016020604051808303816000875af1158015611435573d6000803e3d6000fd5b505050506040513d601f19601f8201168201806040525081019061145991906118f2565b1561149d5760405162461bcd60e51b815260206004820152601460248201527310d3d3540e8811195c1bdcda5d0811985a5b195960621b6044820152606401610966565b5050565b816114aa610a05565b101561149d5760006114ba610a05565b6114c4908461190b565b60405163db006a7560e01b8152600481018290529091507f00000000000000000000000000000000000000000000000000000000000000006001600160a01b03169063db006a75906024016020604051808303816000875af115801561152e573d6000803e3d6000fd5b505050506040513d601f19601f8201168201806040525081019061155291906118f2565b156115955760405162461bcd60e51b815260206004820152601360248201527210d3d3540e8814995919595b4819985a5b1959606a1b6044820152606401610966565b505050565b6001600160a01b038216600090815260036020526040812080548392906115c290849061190b565b90915550506002805482900390556040518181526000906001600160a01b03841690600080516020611a068339815191529060200161130e565b600060405163a9059cbb60e01b8152836004820152826024820152602060006044836000895af13d15601f3d11600160005114161716915050806116745760405162461bcd60e51b815260206004820152600f60248201526e1514905394d1915497d19052531151608a1b6044820152606401610966565b50505050565b600060208083528351808285015260005b818110156116a75785810183015185820160400152820161168b565b818111156116b9576000604083870101525b50601f01601f1916929092016040019392505050565b6000602082840312156116e157600080fd5b5035919050565b80356001600160a01b03811681146116ff57600080fd5b919050565b6000806040838503121561171757600080fd5b611720836116e8565b946020939093013593505050565b60008060006060848603121561174357600080fd5b61174c846116e8565b925061175a602085016116e8565b9150604084013590509250925092565b60006020828403121561177c57600080fd5b61060c826116e8565b6000806040838503121561179857600080fd5b823591506117a8602084016116e8565b90509250929050565b6000806000606084860312156117c657600080fd5b833592506117d6602085016116e8565b91506117e4604085016116e8565b90509250925092565b600080600080600080600060e0888a03121561180857600080fd5b611811886116e8565b965061181f602089016116e8565b95506040880135945060608801359350608088013560ff8116811461184357600080fd5b9699959850939692959460a0840135945060c09093013592915050565b6000806040838503121561187357600080fd5b61187c836116e8565b91506117a8602084016116e8565b634e487b7160e01b600052601160045260246000fd5b600082198211156118b3576118b361188a565b500190565b600181811c908216806118cc57607f821691505b6020821081036118ec57634e487b7160e01b600052602260045260246000fd5b50919050565b60006020828403121561190457600080fd5b5051919050565b60008282101561191d5761191d61188a565b500390565b60008261193f57634e487b7160e01b600052601260045260246000fd5b500490565b600080835481600182811c91508083168061196057607f831692505b6020808410820361197f57634e487b7160e01b86526022600452602486fd5b81801561199357600181146119a8576119d5565b60ff19861689528415158502890196506119d5565b60008a81526020902060005b868110156119cd5781548b8201529085019083016119b4565b505084890196505b509498975050505050505050565b6000602082840312156119f557600080fd5b8151801515811461060c57600080fdfeddf252ad1be2c89b69c2b068fc378daa952ba7f163c4a11628f55a4df523b3efa26469706673582212206688b9dfdacf2b70a951aa9f8b1301e0e301bb6758f267545ed80a80266b4d7a64736f6c634300080f0033a26469706673582212203a6c6a134a718a69099d6640f7bb18735298656a121e694d63f783c3e295b5ef64736f6c634300080f0033",
    "linkReferences": {}
  },
  "methodIdentifiers": {
    "deployVault(address,address)": "338919c8",
    "getVaultFromUnderlying(address,address)": "15006fac",
    "isVaultDeployed(address)": "7d6020f4",
    "owner()": "8da5cb5b",
    "setOwner(address)": "13af4035",
    "vaults(address)": "a622ee7c"
  },
  "id": 19
}