{
  "abi": [
    {
      "inputs": [
        {
          "internalType": "contract ERC20",
          "name": "_UNDERLYING",
          "type": "address"
        },
        {
          "internalType": "contract CErc20",
          "name": "_token",
          "type": "address"
        }
      ],
      "stateMutability": "nonpayable",
      "type": "constructor"
    },
    {
      "anonymous": false,
      "inputs": [
        {
          "indexed": true,
          "internalType": "address",
          "name": "owner",
          "type": "address"
        },
        {
          "indexed": true,
          "internalType": "address",
          "name": "spender",
          "type": "address"
        },
        {
          "indexed": false,
          "internalType": "uint256",
          "name": "amount",
          "type": "uint256"
        }
      ],
      "name": "Approval",
      "type": "event"
    },
    {
      "anonymous": false,
      "inputs": [
        {
          "indexed": true,
          "internalType": "address",
          "name": "caller",
          "type": "address"
        },
        {
          "indexed": true,
          "internalType": "address",
          "name": "owner",
          "type": "address"
        },
        {
          "indexed": false,
          "internalType": "uint256",
          "name": "assets",
          "type": "uint256"
        },
        {
          "indexed": false,
          "internalType": "uint256",
          "name": "shares",
          "type": "uint256"
        }
      ],
      "name": "Deposit",
      "type": "event"
    },
    {
      "anonymous": false,
      "inputs": [
        {
          "indexed": true,
          "internalType": "address",
          "name": "from",
          "type": "address"
        },
        {
          "indexed": true,
          "internalType": "address",
          "name": "to",
          "type": "address"
        },
        {
          "indexed": false,
          "internalType": "uint256",
          "name": "amount",
          "type": "uint256"
        }
      ],
      "name": "Transfer",
      "type": "event"
    },
    {
      "anonymous": false,
      "inputs": [
        {
          "indexed": true,
          "internalType": "address",
          "name": "caller",
          "type": "address"
        },
        {
          "indexed": true,
          "internalType": "address",
          "name": "receiver",
          "type": "address"
        },
        {
          "indexed": true,
          "internalType": "address",
          "name": "owner",
          "type": "address"
        },
        {
          "indexed": false,
          "internalType": "uint256",
          "name": "assets",
          "type": "uint256"
        },
        {
          "indexed": false,
          "internalType": "uint256",
          "name": "shares",
          "type": "uint256"
        }
      ],
      "name": "Withdraw",
      "type": "event"
    },
    {
      "inputs": [],
      "name": "DOMAIN_SEPARATOR",
      "outputs": [
        {
          "internalType": "bytes32",
          "name": "",
          "type": "bytes32"
        }
      ],
      "stateMutability": "view",
      "type": "function"
    },
    {
      "inputs": [],
      "name": "UNDERLYING",
      "outputs": [
        {
          "internalType": "contract ERC20",
          "name": "",
          "type": "address"
        }
      ],
      "stateMutability": "view",
      "type": "function"
    },
    {
      "inputs": [
        {
          "internalType": "address",
          "name": "",
          "type": "address"
        },
        {
          "internalType": "address",
          "name": "",
          "type": "address"
        }
      ],
      "name": "allowance",
      "outputs": [
        {
          "internalType": "uint256",
          "name": "",
          "type": "uint256"
        }
      ],
      "stateMutability": "view",
      "type": "function"
    },
    {
      "inputs": [
        {
          "internalType": "address",
          "name": "spender",
          "type": "address"
        },
        {
          "internalType": "uint256",
          "name": "amount",
          "type": "uint256"
        }
      ],
      "name": "approve",
      "outputs": [
        {
          "internalType": "bool",
          "name": "",
          "type": "bool"
        }
      ],
      "stateMutability": "nonpayable",
      "type": "function"
    },
    {
      "inputs": [],
      "name": "asset",
      "outputs": [
        {
          "internalType": "contract ERC20",
          "name": "",
          "type": "address"
        }
      ],
      "stateMutability": "view",
      "type": "function"
    },
    {
      "inputs": [
        {
          "internalType": "address",
          "name": "",
          "type": "address"
        }
      ],
      "name": "balanceOf",
      "outputs": [
        {
          "internalType": "uint256",
          "name": "",
          "type": "uint256"
        }
      ],
      "stateMutability": "view",
      "type": "function"
    },
    {
      "inputs": [],
      "name": "cToken",
      "outputs": [
        {
          "internalType": "contract CErc20",
          "name": "",
          "type": "address"
        }
      ],
      "stateMutability": "view",
      "type": "function"
    },
    {
      "inputs": [],
      "name": "compBalanceOfUnderlying",
      "outputs": [
        {
          "internalType": "uint256",
          "name": "",
          "type": "uint256"
        }
      ],
      "stateMutability": "nonpayable",
      "type": "function"
    },
    {
      "inputs": [
        {
          "internalType": "uint256",
          "name": "shares",
          "type": "uint256"
        }
      ],
      "name": "convertToAssets",
      "outputs": [
        {
          "internalType": "uint256",
          "name": "",
          "type": "uint256"
        }
      ],
      "stateMutability": "view",
      "type": "function"
    },
    {
      "inputs": [
        {
          "internalType": "uint256",
          "name": "assets",
          "type": "uint256"
        }
      ],
      "name": "convertToShares",
      "outputs": [
        {
          "internalType": "uint256",
          "name": "",
          "type": "uint256"
        }
      ],
      "stateMutability": "view",
      "type": "function"
    },
    {
      "inputs": [],
      "name": "decimals",
      "outputs": [
        {
          "internalType": "uint8",
          "name": "",
          "type": "uint8"
        }
      ],
      "stateMutability": "view",
      "type": "function"
    },
    {
      "inputs": [
        {
          "internalType": "uint256",
          "name": "assets",
          "type": "uint256"
        },
        {
          "internalType": "address",
          "name": "receiver",
          "type": "address"
        }
      ],
      "name": "deposit",
      "outputs": [
        {
          "internalType": "uint256",
          "name": "shares",
          "type": "uint256"
        }
      ],
      "stateMutability": "nonpayable",
      "type": "function"
    },
    {
      "inputs": [],
      "name": "getCompStrategyInfo",
      "outputs": [
        {
          "internalType": "uint256",
          "name": "exchangeRate",
          "type": "uint256"
        },
        {
          "internalType": "uint256",
          "name": "supplyRate",
          "type": "uint256"
        }
      ],
      "stateMutability": "nonpayable",
      "type": "function"
    },
    {
      "inputs": [
        {
          "internalType": "address",
          "name": "",
          "type": "address"
        }
      ],
      "name": "maxDeposit",
      "outputs": [
        {
          "internalType": "uint256",
          "name": "",
          "type": "uint256"
        }
      ],
      "stateMutability": "view",
      "type": "function"
    },
    {
      "inputs": [
        {
          "internalType": "address",
          "name": "",
          "type": "address"
        }
      ],
      "name": "maxMint",
      "outputs": [
        {
          "internalType": "uint256",
          "name": "",
          "type": "uint256"
        }
      ],
      "stateMutability": "view",
      "type": "function"
    },
    {
      "inputs": [
        {
          "internalType": "address",
          "name": "owner",
          "type": "address"
        }
      ],
      "name": "maxRedeem",
      "outputs": [
        {
          "internalType": "uint256",
          "name": "",
          "type": "uint256"
        }
      ],
      "stateMutability": "view",
      "type": "function"
    },
    {
      "inputs": [
        {
          "internalType": "address",
          "name": "owner",
          "type": "address"
        }
      ],
      "name": "maxWithdraw",
      "outputs": [
        {
          "internalType": "uint256",
          "name": "",
          "type": "uint256"
        }
      ],
      "stateMutability": "view",
      "type": "function"
    },
    {
      "inputs": [
        {
          "internalType": "uint256",
          "name": "shares",
          "type": "uint256"
        },
        {
          "internalType": "address",
          "name": "receiver",
          "type": "address"
        }
      ],
      "name": "mint",
      "outputs": [
        {
          "internalType": "uint256",
          "name": "assets",
          "type": "uint256"
        }
      ],
      "stateMutability": "nonpayable",
      "type": "function"
    },
    {
      "inputs": [],
      "name": "name",
      "outputs": [
        {
          "internalType": "string",
          "name": "",
          "type": "string"
        }
      ],
      "stateMutability": "view",
      "type": "function"
    },
    {
      "inputs": [
        {
          "internalType": "address",
          "name": "",
          "type": "address"
        }
      ],
      "name": "nonces",
      "outputs": [
        {
          "internalType": "uint256",
          "name": "",
          "type": "uint256"
        }
      ],
      "stateMutability": "view",
      "type": "function"
    },
    {
      "inputs": [
        {
          "internalType": "address",
          "name": "owner",
          "type": "address"
        },
        {
          "internalType": "address",
          "name": "spender",
          "type": "address"
        },
        {
          "internalType": "uint256",
          "name": "value",
          "type": "uint256"
        },
        {
          "internalType": "uint256",
          "name": "deadline",
          "type": "uint256"
        },
        {
          "internalType": "uint8",
          "name": "v",
          "type": "uint8"
        },
        {
          "internalType": "bytes32",
          "name": "r",
          "type": "bytes32"
        },
        {
          "internalType": "bytes32",
          "name": "s",
          "type": "bytes32"
        }
      ],
      "name": "permit",
      "outputs": [],
      "stateMutability": "nonpayable",
      "type": "function"
    },
    {
      "inputs": [
        {
          "internalType": "uint256",
          "name": "assets",
          "type": "uint256"
        }
      ],
      "name": "previewDeposit",
      "outputs": [
        {
          "internalType": "uint256",
          "name": "",
          "type": "uint256"
        }
      ],
      "stateMutability": "view",
      "type": "function"
    },
    {
      "inputs": [
        {
          "internalType": "uint256",
          "name": "shares",
          "type": "uint256"
        }
      ],
      "name": "previewMint",
      "outputs": [
        {
          "internalType": "uint256",
          "name": "",
          "type": "uint256"
        }
      ],
      "stateMutability": "view",
      "type": "function"
    },
    {
      "inputs": [
        {
          "internalType": "uint256",
          "name": "shares",
          "type": "uint256"
        }
      ],
      "name": "previewRedeem",
      "outputs": [
        {
          "internalType": "uint256",
          "name": "",
          "type": "uint256"
        }
      ],
      "stateMutability": "view",
      "type": "function"
    },
    {
      "inputs": [
        {
          "internalType": "uint256",
          "name": "assets",
          "type": "uint256"
        }
      ],
      "name": "previewWithdraw",
      "outputs": [
        {
          "internalType": "uint256",
          "name": "",
          "type": "uint256"
        }
      ],
      "stateMutability": "view",
      "type": "function"
    },
    {
      "inputs": [
        {
          "internalType": "uint256",
          "name": "shares",
          "type": "uint256"
        },
        {
          "internalType": "address",
          "name": "receiver",
          "type": "address"
        },
        {
          "internalType": "address",
          "name": "owner",
          "type": "address"
        }
      ],
      "name": "redeem",
      "outputs": [
        {
          "internalType": "uint256",
          "name": "assets",
          "type": "uint256"
        }
      ],
      "stateMutability": "nonpayable",
      "type": "function"
    },
    {
      "inputs": [],
      "name": "symbol",
      "outputs": [
        {
          "internalType": "string",
          "name": "",
          "type": "string"
        }
      ],
      "stateMutability": "view",
      "type": "function"
    },
    {
      "inputs": [],
      "name": "totalAssets",
      "outputs": [
        {
          "internalType": "uint256",
          "name": "",
          "type": "uint256"
        }
      ],
      "stateMutability": "view",
      "type": "function"
    },
    {
      "inputs": [],
      "name": "totalFloat",
      "outputs": [
        {
          "internalType": "uint256",
          "name": "",
          "type": "uint256"
        }
      ],
      "stateMutability": "view",
      "type": "function"
    },
    {
      "inputs": [],
      "name": "totalStrategyHoldings",
      "outputs": [
        {
          "internalType": "uint256",
          "name": "",
          "type": "uint256"
        }
      ],
      "stateMutability": "view",
      "type": "function"
    },
    {
      "inputs": [],
      "name": "totalSupply",
      "outputs": [
        {
          "internalType": "uint256",
          "name": "",
          "type": "uint256"
        }
      ],
      "stateMutability": "view",
      "type": "function"
    },
    {
      "inputs": [],
      "name": "totalUnderlyingHeld",
      "outputs": [
        {
          "internalType": "uint256",
          "name": "",
          "type": "uint256"
        }
      ],
      "stateMutability": "view",
      "type": "function"
    },
    {
      "inputs": [
        {
          "internalType": "address",
          "name": "to",
          "type": "address"
        },
        {
          "internalType": "uint256",
          "name": "amount",
          "type": "uint256"
        }
      ],
      "name": "transfer",
      "outputs": [
        {
          "internalType": "bool",
          "name": "",
          "type": "bool"
        }
      ],
      "stateMutability": "nonpayable",
      "type": "function"
    },
    {
      "inputs": [
        {
          "internalType": "address",
          "name": "from",
          "type": "address"
        },
        {
          "internalType": "address",
          "name": "to",
          "type": "address"
        },
        {
          "internalType": "uint256",
          "name": "amount",
          "type": "uint256"
        }
      ],
      "name": "transferFrom",
      "outputs": [
        {
          "internalType": "bool",
          "name": "",
          "type": "bool"
        }
      ],
      "stateMutability": "nonpayable",
      "type": "function"
    },
    {
      "inputs": [
        {
          "internalType": "uint256",
          "name": "assets",
          "type": "uint256"
        },
        {
          "internalType": "address",
          "name": "receiver",
          "type": "address"
        },
        {
          "internalType": "address",
          "name": "owner",
          "type": "address"
        }
      ],
      "name": "withdraw",
      "outputs": [
        {
          "internalType": "uint256",
          "name": "shares",
          "type": "uint256"
        }
      ],
      "stateMutability": "nonpayable",
      "type": "function"
    }
  ],
  "bytecode": {
    "object": "0x6101406040523480156200001257600080fd5b5060405162002142380380620021428339810160408190526200003591620002c1565b81826001600160a01b03166306fdde036040518163ffffffff1660e01b8152600401600060405180830381865afa15801562000075573d6000803e3d6000fd5b505050506040513d6000823e601f3d908101601f191682016040526200009f919081019062000349565b604051602001620000b1919062000401565b604051602081830303815290604052836001600160a01b03166395d89b416040518163ffffffff1660e01b8152600401600060405180830381865afa158015620000ff573d6000803e3d6000fd5b505050506040513d6000823e601f3d908101601f1916820160405262000129919081019062000349565b6040516020016200013b91906200043f565b6040516020818303038152906040528181846001600160a01b031663313ce5676040518163ffffffff1660e01b8152600401602060405180830381865afa1580156200018b573d6000803e3d6000fd5b505050506040513d601f19601f82011682018060405250810190620001b191906200046b565b6000620001bf848262000526565b506001620001ce838262000526565b5060ff81166080524660a052620001e46200020c565b60c0525050506001600160a01b0392831660e052505091821661010052166101205262000670565b60007f8b73c3c69bb8fe3d512ecc4cf759cc79239f7b179b0ffacaa9a75d522b39400f6000604051620002409190620005f2565b6040805191829003822060208301939093528101919091527fc89efdaa54c0f20c7adf612882df0950f5a951637e0307cdcb4c672f298b8bc660608201524660808201523060a082015260c00160405160208183030381529060405280519060200120905090565b6001600160a01b0381168114620002be57600080fd5b50565b60008060408385031215620002d557600080fd5b8251620002e281620002a8565b6020840151909250620002f581620002a8565b809150509250929050565b634e487b7160e01b600052604160045260246000fd5b60005b838110156200033357818101518382015260200162000319565b8381111562000343576000848401525b50505050565b6000602082840312156200035c57600080fd5b81516001600160401b03808211156200037457600080fd5b818401915084601f8301126200038957600080fd5b8151818111156200039e576200039e62000300565b604051601f8201601f19908116603f01168101908382118183101715620003c957620003c962000300565b81604052828152876020848701011115620003e357600080fd5b620003f683602083016020880162000316565b979650505050505050565b63020b4b6960e51b8152600082516200042281600485016020870162000316565b650815985d5b1d60d21b6004939091019283015250600a01919050565b6130bb60f11b8152600082516200045e81600285016020870162000316565b9190910160020192915050565b6000602082840312156200047e57600080fd5b815160ff811681146200049057600080fd5b9392505050565b600181811c90821680620004ac57607f821691505b602082108103620004cd57634e487b7160e01b600052602260045260246000fd5b50919050565b601f8211156200052157600081815260208120601f850160051c81016020861015620004fc5750805b601f850160051c820191505b818110156200051d5782815560010162000508565b5050505b505050565b81516001600160401b0381111562000542576200054262000300565b6200055a8162000553845462000497565b84620004d3565b602080601f831160018114620005925760008415620005795750858301515b600019600386901b1c1916600185901b1785556200051d565b600085815260208120601f198616915b82811015620005c357888601518255948401946001909101908401620005a2565b5085821015620005e25787850151600019600388901b60f8161c191681555b5050505050600190811b01905550565b6000808354620006028162000497565b600182811680156200061d5760018114620006335762000664565b60ff198416875282151583028701945062000664565b8760005260208060002060005b858110156200065b5781548a82015290840190820162000640565b50505082870194505b50929695505050505050565b60805160a05160c05160e0516101005161012051611a2e62000714600039600081816103750152818161061a015281816106a0015281816110a001528181611304015281816113b701526114b1015260008181610467015281816109f1015261133301526000818161030e0152818161095701528181610a7e01528181610c840152610ddb015260006108cd01526000610898015260006102cd0152611a2e6000f3fe608060405234801561001057600080fd5b50600436106102115760003560e01c8063841219e511610125578063c63d75b6116100ad578063d905777e1161007c578063d905777e146104c4578063da55602b146104ed578063dd62ed3e146104f5578063ecad956514610520578063ef8b30f71461052957600080fd5b8063c63d75b614610348578063c6e6f59214610489578063ce96cb771461049c578063d505accf146104af57600080fd5b8063b3d7f6b9116100f4578063b3d7f6b914610420578063b460af9414610433578063ba08765214610446578063c55c313c14610459578063c5d664c61461046257600080fd5b8063841219e5146103ea57806394bf804d146103f257806395d89b4114610405578063a9059cbb1461040d57600080fd5b8063313ce567116101a85780634cdad506116101775780634cdad5061461035d57806369e527da146103705780636e553f651461039757806370a08231146103aa5780637ecebe00146103ca57600080fd5b8063313ce567146102c85780633644e5151461030157806338d52e0f14610309578063402d267d1461034857600080fd5b8063095ea7b3116101e4578063095ea7b3146102765780630a28a4771461029957806318160ddd146102ac57806323b872dd146102b557600080fd5b806301e1d1141461021657806306fdde031461023157806307a2d13a1461024657806308bf795214610259575b600080fd5b61021e61053c565b6040519081526020015b60405180910390f35b61023961055a565b604051610228919061164d565b61021e6102543660046116a2565b6105e8565b610261610615565b60408051928352602083019190915201610228565b6102896102843660046116d7565b610728565b6040519015158152602001610228565b61021e6102a73660046116a2565b610794565b61021e60025481565b6102896102c3366004611701565b6107b4565b6102ef7f000000000000000000000000000000000000000000000000000000000000000081565b60405160ff9091168152602001610228565b61021e610894565b6103307f000000000000000000000000000000000000000000000000000000000000000081565b6040516001600160a01b039091168152602001610228565b61021e61035636600461173d565b5060001990565b61021e61036b3660046116a2565b6108ef565b6103307f000000000000000000000000000000000000000000000000000000000000000081565b61021e6103a5366004611758565b6108fa565b61021e6103b836600461173d565b60036020526000908152604090205481565b61021e6103d836600461173d565b60056020526000908152604090205481565b61021e6109d9565b61021e610400366004611758565b610a64565b610239610b00565b61028961041b3660046116d7565b610b0d565b61021e61042e3660046116a2565b610b73565b61021e610441366004611784565b610b92565b61021e610454366004611784565b610cab565b61021e60065481565b6103307f000000000000000000000000000000000000000000000000000000000000000081565b61021e6104973660046116a2565b610e02565b61021e6104aa36600461173d565b610e22565b6104c26104bd3660046117c0565b610e44565b005b61021e6104d236600461173d565b6001600160a01b031660009081526003602052604090205490565b61021e611088565b61021e610503366004611833565b600460209081526000928352604080842090915290825290205481565b61021e60075481565b61021e6105373660046116a2565b6110f1565b6000806105476109d9565b6007546105549190611873565b92915050565b600080546105679061188b565b80601f01602080910402602001604051908101604052809291908181526020018280546105939061188b565b80156105e05780601f106105b5576101008083540402835291602001916105e0565b820191906000526020600020905b8154815290600101906020018083116105c357829003601f168201915b505050505081565b600254600090801561060c576106076105ff61053c565b8490836110fc565b61060e565b825b9392505050565b6000807f00000000000000000000000000000000000000000000000000000000000000006001600160a01b031663bd6d894d6040518163ffffffff1660e01b81526004016020604051808303816000875af1158015610678573d6000803e3d6000fd5b505050506040513d601f19601f8201168201806040525081019061069c91906118c5565b91507f00000000000000000000000000000000000000000000000000000000000000006001600160a01b031663ae9d70b06040518163ffffffff1660e01b81526004016020604051808303816000875af11580156106fe573d6000803e3d6000fd5b505050506040513d601f19601f8201168201806040525081019061072291906118c5565b90509091565b3360008181526004602090815260408083206001600160a01b038716808552925280832085905551919290917f8c5be1e5ebec7d5bd14f71427d1e84f3dd0314c0f7b2291e5b200ac8c7c3b925906107839086815260200190565b60405180910390a350600192915050565b600254600090801561060c57610607816107ac61053c565b85919061111b565b6001600160a01b03831660009081526004602090815260408083203384529091528120546000198114610810576107eb83826118de565b6001600160a01b03861660009081526004602090815260408083203384529091529020555b6001600160a01b038516600090815260036020526040812080548592906108389084906118de565b90915550506001600160a01b03808516600081815260036020526040908190208054870190555190918716906000805160206119d9833981519152906108819087815260200190565b60405180910390a3506001949350505050565b60007f000000000000000000000000000000000000000000000000000000000000000046146108ca576108c5611149565b905090565b507f000000000000000000000000000000000000000000000000000000000000000090565b6000610554826105e8565b6000610905836110f1565b90508060000361094a5760405162461bcd60e51b815260206004820152600b60248201526a5a45524f5f53484152455360a81b60448201526064015b60405180910390fd5b61097f6001600160a01b037f0000000000000000000000000000000000000000000000000000000000000000163330866111e3565b610989828261126d565b60408051848152602081018390526001600160a01b0384169133917fdcbc1c05240f31ff3ad067ef1ee35ce4997762752e3a095284754544f4c709d7910160405180910390a361055483826112c7565b6040516370a0823160e01b81523060048201526000907f00000000000000000000000000000000000000000000000000000000000000006001600160a01b0316906370a0823190602401602060405180830381865afa158015610a40573d6000803e3d6000fd5b505050506040513d601f19601f820116820180604052508101906108c591906118c5565b6000610a6f83610b73565b9050610aa66001600160a01b037f0000000000000000000000000000000000000000000000000000000000000000163330846111e3565b610ab0828461126d565b60408051828152602081018590526001600160a01b0384169133917fdcbc1c05240f31ff3ad067ef1ee35ce4997762752e3a095284754544f4c709d7910160405180910390a361055481846112c7565b600180546105679061188b565b33600090815260036020526040812080548391908390610b2e9084906118de565b90915550506001600160a01b038316600081815260036020526040908190208054850190555133906000805160206119d9833981519152906107839086815260200190565b600254600090801561060c57610607610b8a61053c565b84908361111b565b6000610b9c611088565b600755610ba884610794565b9050336001600160a01b03831614610c18576001600160a01b03821660009081526004602090815260408083203384529091529020546000198114610c1657610bf182826118de565b6001600160a01b03841660009081526004602090815260408083203384529091529020555b505b610c228482611475565b610c2c828261156d565b60408051858152602081018390526001600160a01b03808516929086169133917ffbde797d201c681b91056529119e0b02407c7bb96a4a2c75c01fc9667232c8db910160405180910390a461060e6001600160a01b037f00000000000000000000000000000000000000000000000000000000000000001684866115cf565b6000336001600160a01b03831614610d1b576001600160a01b03821660009081526004602090815260408083203384529091529020546000198114610d1957610cf485826118de565b6001600160a01b03841660009081526004602090815260408083203384529091529020555b505b610d23611088565b600755610d2f846108ef565b905080600003610d6f5760405162461bcd60e51b815260206004820152600b60248201526a5a45524f5f41535345545360a81b6044820152606401610941565b610d798185611475565b610d83828561156d565b60408051828152602081018690526001600160a01b03808516929086169133917ffbde797d201c681b91056529119e0b02407c7bb96a4a2c75c01fc9667232c8db910160405180910390a461060e6001600160a01b037f00000000000000000000000000000000000000000000000000000000000000001684836115cf565b600254600090801561060c5761060781610e1a61053c565b8591906110fc565b6001600160a01b038116600090815260036020526040812054610554906105e8565b42841015610e945760405162461bcd60e51b815260206004820152601760248201527f5045524d49545f444541444c494e455f455850495245440000000000000000006044820152606401610941565b60006001610ea0610894565b6001600160a01b038a811660008181526005602090815260409182902080546001810190915582517f6e71edae12b1b97f4d1f60370fef10105fa2faae0126114a169c64845d6126c98184015280840194909452938d166060840152608083018c905260a083019390935260c08083018b90528151808403909101815260e08301909152805192019190912061190160f01b6101008301526101028201929092526101228101919091526101420160408051601f198184030181528282528051602091820120600084529083018083525260ff871690820152606081018590526080810184905260a0016020604051602081039080840390855afa158015610fac573d6000803e3d6000fd5b5050604051601f1901519150506001600160a01b03811615801590610fe25750876001600160a01b0316816001600160a01b0316145b61101f5760405162461bcd60e51b815260206004820152600e60248201526d24a72b20a624a22fa9a4a3a722a960911b6044820152606401610941565b6001600160a01b0390811660009081526004602090815260408083208a8516808552908352928190208990555188815291928a16917f8c5be1e5ebec7d5bd14f71427d1e84f3dd0314c0f7b2291e5b200ac8c7c3b925910160405180910390a350505050505050565b604051633af9e66960e01b81523060048201526000907f00000000000000000000000000000000000000000000000000000000000000006001600160a01b031690633af9e669906024016020604051808303816000875af1158015610a40573d6000803e3d6000fd5b600061055482610e02565b82820281151584158583048514171661111457600080fd5b0492915050565b82820281151584158583048514171661113357600080fd5b6001826001830304018115150290509392505050565b60007f8b73c3c69bb8fe3d512ecc4cf759cc79239f7b179b0ffacaa9a75d522b39400f600060405161117b91906118f5565b6040805191829003822060208301939093528101919091527fc89efdaa54c0f20c7adf612882df0950f5a951637e0307cdcb4c672f298b8bc660608201524660808201523060a082015260c00160405160208183030381529060405280519060200120905090565b60006040516323b872dd60e01b81528460048201528360248201528260448201526020600060648360008a5af13d15601f3d11600160005114161716915050806112665760405162461bcd60e51b81526020600482015260146024820152731514905394d1915497d19493d357d1905253115160621b6044820152606401610941565b5050505050565b806002600082825461127f9190611873565b90915550506001600160a01b0382166000818152600360209081526040808320805486019055518481526000805160206119d983398151915291015b60405180910390a35050565b60006112d4600284611994565b905080600760008282546112e89190611873565b909155505060405163095ea7b360e01b81526001600160a01b037f000000000000000000000000000000000000000000000000000000000000000081166004830152602482018390527f0000000000000000000000000000000000000000000000000000000000000000169063095ea7b3906044016020604051808303816000875af115801561137c573d6000803e3d6000fd5b505050506040513d601f19601f820116820180604052508101906113a091906119b6565b5060405163140e25ad60e31b8152600481018490527f00000000000000000000000000000000000000000000000000000000000000006001600160a01b03169063a0712d68906024016020604051808303816000875af1158015611408573d6000803e3d6000fd5b505050506040513d601f19601f8201168201806040525081019061142c91906118c5565b156114705760405162461bcd60e51b815260206004820152601460248201527310d3d3540e8811195c1bdcda5d0811985a5b195960621b6044820152606401610941565b505050565b8161147e6109d9565b101561156957600061148e6109d9565b61149890846118de565b60405163db006a7560e01b8152600481018290529091507f00000000000000000000000000000000000000000000000000000000000000006001600160a01b03169063db006a75906024016020604051808303816000875af1158015611502573d6000803e3d6000fd5b505050506040513d601f19601f8201168201806040525081019061152691906118c5565b156114705760405162461bcd60e51b815260206004820152601360248201527210d3d3540e8814995919595b4819985a5b1959606a1b6044820152606401610941565b5050565b6001600160a01b038216600090815260036020526040812080548392906115959084906118de565b90915550506002805482900390556040518181526000906001600160a01b038416906000805160206119d9833981519152906020016112bb565b600060405163a9059cbb60e01b8152836004820152826024820152602060006044836000895af13d15601f3d11600160005114161716915050806116475760405162461bcd60e51b815260206004820152600f60248201526e1514905394d1915497d19052531151608a1b6044820152606401610941565b50505050565b600060208083528351808285015260005b8181101561167a5785810183015185820160400152820161165e565b8181111561168c576000604083870101525b50601f01601f1916929092016040019392505050565b6000602082840312156116b457600080fd5b5035919050565b80356001600160a01b03811681146116d257600080fd5b919050565b600080604083850312156116ea57600080fd5b6116f3836116bb565b946020939093013593505050565b60008060006060848603121561171657600080fd5b61171f846116bb565b925061172d602085016116bb565b9150604084013590509250925092565b60006020828403121561174f57600080fd5b61060e826116bb565b6000806040838503121561176b57600080fd5b8235915061177b602084016116bb565b90509250929050565b60008060006060848603121561179957600080fd5b833592506117a9602085016116bb565b91506117b7604085016116bb565b90509250925092565b600080600080600080600060e0888a0312156117db57600080fd5b6117e4886116bb565b96506117f2602089016116bb565b95506040880135945060608801359350608088013560ff8116811461181657600080fd5b9699959850939692959460a0840135945060c09093013592915050565b6000806040838503121561184657600080fd5b61184f836116bb565b915061177b602084016116bb565b634e487b7160e01b600052601160045260246000fd5b600082198211156118865761188661185d565b500190565b600181811c9082168061189f57607f821691505b6020821081036118bf57634e487b7160e01b600052602260045260246000fd5b50919050565b6000602082840312156118d757600080fd5b5051919050565b6000828210156118f0576118f061185d565b500390565b600080835481600182811c91508083168061191157607f831692505b6020808410820361193057634e487b7160e01b86526022600452602486fd5b818015611944576001811461195957611986565b60ff1986168952841515850289019650611986565b60008a81526020902060005b8681101561197e5781548b820152908501908301611965565b505084890196505b509498975050505050505050565b6000826119b157634e487b7160e01b600052601260045260246000fd5b500490565b6000602082840312156119c857600080fd5b8151801515811461060e57600080fdfeddf252ad1be2c89b69c2b068fc378daa952ba7f163c4a11628f55a4df523b3efa26469706673582212205ffa20dd8f0d2e6f448808f1f27ba715447fa11d480a432c058e7a1ef6f8892164736f6c634300080f0033",
    "linkReferences": {}
  },
  "methodIdentifiers": {
    "DOMAIN_SEPARATOR()": "3644e515",
    "UNDERLYING()": "c5d664c6",
    "allowance(address,address)": "dd62ed3e",
    "approve(address,uint256)": "095ea7b3",
    "asset()": "38d52e0f",
    "balanceOf(address)": "70a08231",
    "cToken()": "69e527da",
    "compBalanceOfUnderlying()": "da55602b",
    "convertToAssets(uint256)": "07a2d13a",
    "convertToShares(uint256)": "c6e6f592",
    "decimals()": "313ce567",
    "deposit(uint256,address)": "6e553f65",
    "getCompStrategyInfo()": "08bf7952",
    "maxDeposit(address)": "402d267d",
    "maxMint(address)": "c63d75b6",
    "maxRedeem(address)": "d905777e",
    "maxWithdraw(address)": "ce96cb77",
    "mint(uint256,address)": "94bf804d",
    "name()": "06fdde03",
    "nonces(address)": "7ecebe00",
    "permit(address,address,uint256,uint256,uint8,bytes32,bytes32)": "d505accf",
    "previewDeposit(uint256)": "ef8b30f7",
    "previewMint(uint256)": "b3d7f6b9",
    "previewRedeem(uint256)": "4cdad506",
    "previewWithdraw(uint256)": "0a28a477",
    "redeem(uint256,address,address)": "ba087652",
    "symbol()": "95d89b41",
    "totalAssets()": "01e1d114",
    "totalFloat()": "841219e5",
    "totalStrategyHoldings()": "ecad9565",
    "totalSupply()": "18160ddd",
    "totalUnderlyingHeld()": "c55c313c",
    "transfer(address,uint256)": "a9059cbb",
    "transferFrom(address,address,uint256)": "23b872dd",
    "withdraw(uint256,address,address)": "b460af94"
  },
  "id": 15
}