{
  "abi": [
    {
      "inputs": [
        {
          "internalType": "contract ERC20",
          "name": "_UNDERLYING",
          "type": "address"
        },
        {
          "internalType": "address",
          "name": "_token",
          "type": "address"
        },
        {
          "internalType": "address",
          "name": "_owner",
          "type": "address"
        }
      ],
      "stateMutability": "nonpayable",
      "type": "constructor"
    },
    {
      "anonymous": false,
      "inputs": [
        {
          "indexed": true,
          "internalType": "address",
          "name": "owner",
          "type": "address"
        },
        {
          "indexed": true,
          "internalType": "address",
          "name": "spender",
          "type": "address"
        },
        {
          "indexed": false,
          "internalType": "uint256",
          "name": "amount",
          "type": "uint256"
        }
      ],
      "name": "Approval",
      "type": "event"
    },
    {
      "anonymous": false,
      "inputs": [
        {
          "indexed": true,
          "internalType": "address",
          "name": "caller",
          "type": "address"
        },
        {
          "indexed": true,
          "internalType": "address",
          "name": "owner",
          "type": "address"
        },
        {
          "indexed": false,
          "internalType": "uint256",
          "name": "assets",
          "type": "uint256"
        },
        {
          "indexed": false,
          "internalType": "uint256",
          "name": "shares",
          "type": "uint256"
        }
      ],
      "name": "Deposit",
      "type": "event"
    },
    {
      "anonymous": false,
      "inputs": [
        {
          "indexed": true,
          "internalType": "address",
          "name": "user",
          "type": "address"
        },
        {
          "indexed": true,
          "internalType": "address",
          "name": "newOwner",
          "type": "address"
        }
      ],
      "name": "OwnerUpdated",
      "type": "event"
    },
    {
      "anonymous": false,
      "inputs": [
        {
          "indexed": true,
          "internalType": "address",
          "name": "from",
          "type": "address"
        },
        {
          "indexed": true,
          "internalType": "address",
          "name": "to",
          "type": "address"
        },
        {
          "indexed": false,
          "internalType": "uint256",
          "name": "amount",
          "type": "uint256"
        }
      ],
      "name": "Transfer",
      "type": "event"
    },
    {
      "anonymous": false,
      "inputs": [
        {
          "indexed": true,
          "internalType": "address",
          "name": "caller",
          "type": "address"
        },
        {
          "indexed": true,
          "internalType": "address",
          "name": "receiver",
          "type": "address"
        },
        {
          "indexed": true,
          "internalType": "address",
          "name": "owner",
          "type": "address"
        },
        {
          "indexed": false,
          "internalType": "uint256",
          "name": "assets",
          "type": "uint256"
        },
        {
          "indexed": false,
          "internalType": "uint256",
          "name": "shares",
          "type": "uint256"
        }
      ],
      "name": "Withdraw",
      "type": "event"
    },
    {
      "inputs": [],
      "name": "DOMAIN_SEPARATOR",
      "outputs": [
        {
          "internalType": "bytes32",
          "name": "",
          "type": "bytes32"
        }
      ],
      "stateMutability": "view",
      "type": "function"
    },
    {
      "inputs": [],
      "name": "UNDERLYING",
      "outputs": [
        {
          "internalType": "contract ERC20",
          "name": "",
          "type": "address"
        }
      ],
      "stateMutability": "view",
      "type": "function"
    },
    {
      "inputs": [
        {
          "internalType": "address",
          "name": "",
          "type": "address"
        },
        {
          "internalType": "address",
          "name": "",
          "type": "address"
        }
      ],
      "name": "allowance",
      "outputs": [
        {
          "internalType": "uint256",
          "name": "",
          "type": "uint256"
        }
      ],
      "stateMutability": "view",
      "type": "function"
    },
    {
      "inputs": [
        {
          "internalType": "address",
          "name": "spender",
          "type": "address"
        },
        {
          "internalType": "uint256",
          "name": "amount",
          "type": "uint256"
        }
      ],
      "name": "approve",
      "outputs": [
        {
          "internalType": "bool",
          "name": "",
          "type": "bool"
        }
      ],
      "stateMutability": "nonpayable",
      "type": "function"
    },
    {
      "inputs": [],
      "name": "asset",
      "outputs": [
        {
          "internalType": "contract ERC20",
          "name": "",
          "type": "address"
        }
      ],
      "stateMutability": "view",
      "type": "function"
    },
    {
      "inputs": [
        {
          "internalType": "address",
          "name": "",
          "type": "address"
        }
      ],
      "name": "balanceOf",
      "outputs": [
        {
          "internalType": "uint256",
          "name": "",
          "type": "uint256"
        }
      ],
      "stateMutability": "view",
      "type": "function"
    },
    {
      "inputs": [],
      "name": "cToken",
      "outputs": [
        {
          "internalType": "contract CErc20",
          "name": "",
          "type": "address"
        }
      ],
      "stateMutability": "view",
      "type": "function"
    },
    {
      "inputs": [],
      "name": "compBalanceOfUnderlying",
      "outputs": [
        {
          "internalType": "uint256",
          "name": "",
          "type": "uint256"
        }
      ],
      "stateMutability": "nonpayable",
      "type": "function"
    },
    {
      "inputs": [
        {
          "internalType": "uint256",
          "name": "shares",
          "type": "uint256"
        }
      ],
      "name": "convertToAssets",
      "outputs": [
        {
          "internalType": "uint256",
          "name": "",
          "type": "uint256"
        }
      ],
      "stateMutability": "view",
      "type": "function"
    },
    {
      "inputs": [
        {
          "internalType": "uint256",
          "name": "assets",
          "type": "uint256"
        }
      ],
      "name": "convertToShares",
      "outputs": [
        {
          "internalType": "uint256",
          "name": "",
          "type": "uint256"
        }
      ],
      "stateMutability": "view",
      "type": "function"
    },
    {
      "inputs": [],
      "name": "decimals",
      "outputs": [
        {
          "internalType": "uint8",
          "name": "",
          "type": "uint8"
        }
      ],
      "stateMutability": "view",
      "type": "function"
    },
    {
      "inputs": [
        {
          "internalType": "uint256",
          "name": "assets",
          "type": "uint256"
        },
        {
          "internalType": "address",
          "name": "receiver",
          "type": "address"
        }
      ],
      "name": "deposit",
      "outputs": [
        {
          "internalType": "uint256",
          "name": "shares",
          "type": "uint256"
        }
      ],
      "stateMutability": "nonpayable",
      "type": "function"
    },
    {
      "inputs": [],
      "name": "getCompStrategyInfo",
      "outputs": [
        {
          "internalType": "uint256",
          "name": "exchangeRate",
          "type": "uint256"
        },
        {
          "internalType": "uint256",
          "name": "supplyRate",
          "type": "uint256"
        }
      ],
      "stateMutability": "nonpayable",
      "type": "function"
    },
    {
      "inputs": [
        {
          "internalType": "address",
          "name": "",
          "type": "address"
        }
      ],
      "name": "maxDeposit",
      "outputs": [
        {
          "internalType": "uint256",
          "name": "",
          "type": "uint256"
        }
      ],
      "stateMutability": "view",
      "type": "function"
    },
    {
      "inputs": [
        {
          "internalType": "address",
          "name": "",
          "type": "address"
        }
      ],
      "name": "maxMint",
      "outputs": [
        {
          "internalType": "uint256",
          "name": "",
          "type": "uint256"
        }
      ],
      "stateMutability": "view",
      "type": "function"
    },
    {
      "inputs": [
        {
          "internalType": "address",
          "name": "owner",
          "type": "address"
        }
      ],
      "name": "maxRedeem",
      "outputs": [
        {
          "internalType": "uint256",
          "name": "",
          "type": "uint256"
        }
      ],
      "stateMutability": "view",
      "type": "function"
    },
    {
      "inputs": [
        {
          "internalType": "address",
          "name": "owner",
          "type": "address"
        }
      ],
      "name": "maxWithdraw",
      "outputs": [
        {
          "internalType": "uint256",
          "name": "",
          "type": "uint256"
        }
      ],
      "stateMutability": "view",
      "type": "function"
    },
    {
      "inputs": [
        {
          "internalType": "uint256",
          "name": "shares",
          "type": "uint256"
        },
        {
          "internalType": "address",
          "name": "receiver",
          "type": "address"
        }
      ],
      "name": "mint",
      "outputs": [
        {
          "internalType": "uint256",
          "name": "assets",
          "type": "uint256"
        }
      ],
      "stateMutability": "nonpayable",
      "type": "function"
    },
    {
      "inputs": [],
      "name": "name",
      "outputs": [
        {
          "internalType": "string",
          "name": "",
          "type": "string"
        }
      ],
      "stateMutability": "view",
      "type": "function"
    },
    {
      "inputs": [
        {
          "internalType": "address",
          "name": "",
          "type": "address"
        }
      ],
      "name": "nonces",
      "outputs": [
        {
          "internalType": "uint256",
          "name": "",
          "type": "uint256"
        }
      ],
      "stateMutability": "view",
      "type": "function"
    },
    {
      "inputs": [],
      "name": "owner",
      "outputs": [
        {
          "internalType": "address",
          "name": "",
          "type": "address"
        }
      ],
      "stateMutability": "view",
      "type": "function"
    },
    {
      "inputs": [
        {
          "internalType": "address",
          "name": "owner",
          "type": "address"
        },
        {
          "internalType": "address",
          "name": "spender",
          "type": "address"
        },
        {
          "internalType": "uint256",
          "name": "value",
          "type": "uint256"
        },
        {
          "internalType": "uint256",
          "name": "deadline",
          "type": "uint256"
        },
        {
          "internalType": "uint8",
          "name": "v",
          "type": "uint8"
        },
        {
          "internalType": "bytes32",
          "name": "r",
          "type": "bytes32"
        },
        {
          "internalType": "bytes32",
          "name": "s",
          "type": "bytes32"
        }
      ],
      "name": "permit",
      "outputs": [],
      "stateMutability": "nonpayable",
      "type": "function"
    },
    {
      "inputs": [
        {
          "internalType": "uint256",
          "name": "assets",
          "type": "uint256"
        }
      ],
      "name": "previewDeposit",
      "outputs": [
        {
          "internalType": "uint256",
          "name": "",
          "type": "uint256"
        }
      ],
      "stateMutability": "view",
      "type": "function"
    },
    {
      "inputs": [
        {
          "internalType": "uint256",
          "name": "shares",
          "type": "uint256"
        }
      ],
      "name": "previewMint",
      "outputs": [
        {
          "internalType": "uint256",
          "name": "",
          "type": "uint256"
        }
      ],
      "stateMutability": "view",
      "type": "function"
    },
    {
      "inputs": [
        {
          "internalType": "uint256",
          "name": "shares",
          "type": "uint256"
        }
      ],
      "name": "previewRedeem",
      "outputs": [
        {
          "internalType": "uint256",
          "name": "",
          "type": "uint256"
        }
      ],
      "stateMutability": "view",
      "type": "function"
    },
    {
      "inputs": [
        {
          "internalType": "uint256",
          "name": "assets",
          "type": "uint256"
        }
      ],
      "name": "previewWithdraw",
      "outputs": [
        {
          "internalType": "uint256",
          "name": "",
          "type": "uint256"
        }
      ],
      "stateMutability": "view",
      "type": "function"
    },
    {
      "inputs": [
        {
          "internalType": "uint256",
          "name": "shares",
          "type": "uint256"
        },
        {
          "internalType": "address",
          "name": "receiver",
          "type": "address"
        },
        {
          "internalType": "address",
          "name": "owner",
          "type": "address"
        }
      ],
      "name": "redeem",
      "outputs": [
        {
          "internalType": "uint256",
          "name": "assets",
          "type": "uint256"
        }
      ],
      "stateMutability": "nonpayable",
      "type": "function"
    },
    {
      "inputs": [
        {
          "internalType": "address",
          "name": "newOwner",
          "type": "address"
        }
      ],
      "name": "setOwner",
      "outputs": [],
      "stateMutability": "nonpayable",
      "type": "function"
    },
    {
      "inputs": [],
      "name": "symbol",
      "outputs": [
        {
          "internalType": "string",
          "name": "",
          "type": "string"
        }
      ],
      "stateMutability": "view",
      "type": "function"
    },
    {
      "inputs": [],
      "name": "totalAssets",
      "outputs": [
        {
          "internalType": "uint256",
          "name": "total",
          "type": "uint256"
        }
      ],
      "stateMutability": "view",
      "type": "function"
    },
    {
      "inputs": [],
      "name": "totalFloat",
      "outputs": [
        {
          "internalType": "uint256",
          "name": "",
          "type": "uint256"
        }
      ],
      "stateMutability": "view",
      "type": "function"
    },
    {
      "inputs": [],
      "name": "totalSupply",
      "outputs": [
        {
          "internalType": "uint256",
          "name": "",
          "type": "uint256"
        }
      ],
      "stateMutability": "view",
      "type": "function"
    },
    {
      "inputs": [
        {
          "internalType": "address",
          "name": "to",
          "type": "address"
        },
        {
          "internalType": "uint256",
          "name": "amount",
          "type": "uint256"
        }
      ],
      "name": "transfer",
      "outputs": [
        {
          "internalType": "bool",
          "name": "",
          "type": "bool"
        }
      ],
      "stateMutability": "nonpayable",
      "type": "function"
    },
    {
      "inputs": [
        {
          "internalType": "address",
          "name": "from",
          "type": "address"
        },
        {
          "internalType": "address",
          "name": "to",
          "type": "address"
        },
        {
          "internalType": "uint256",
          "name": "amount",
          "type": "uint256"
        }
      ],
      "name": "transferFrom",
      "outputs": [
        {
          "internalType": "bool",
          "name": "",
          "type": "bool"
        }
      ],
      "stateMutability": "nonpayable",
      "type": "function"
    },
    {
      "inputs": [],
      "name": "updateTotalStrategyHoldings",
      "outputs": [],
      "stateMutability": "nonpayable",
      "type": "function"
    },
    {
      "inputs": [
        {
          "internalType": "uint256",
          "name": "assets",
          "type": "uint256"
        },
        {
          "internalType": "address",
          "name": "receiver",
          "type": "address"
        },
        {
          "internalType": "address",
          "name": "owner",
          "type": "address"
        }
      ],
      "name": "withdraw",
      "outputs": [
        {
          "internalType": "uint256",
          "name": "shares",
          "type": "uint256"
        }
      ],
      "stateMutability": "nonpayable",
      "type": "function"
    }
  ],
  "bytecode": {
    "object": "0x6101406040523480156200001257600080fd5b506040516200227c3803806200227c83398101604081905262000035916200030d565b8083846001600160a01b03166306fdde036040518163ffffffff1660e01b8152600401600060405180830381865afa15801562000076573d6000803e3d6000fd5b505050506040513d6000823e601f3d908101601f19168201604052620000a091908101906200039d565b604051602001620000b2919062000455565b604051602081830303815290604052856001600160a01b03166395d89b416040518163ffffffff1660e01b8152600401600060405180830381865afa15801562000100573d6000803e3d6000fd5b505050506040513d6000823e601f3d908101601f191682016040526200012a91908101906200039d565b6040516020016200013c919062000493565b6040516020818303038152906040528181846001600160a01b031663313ce5676040518163ffffffff1660e01b8152600401602060405180830381865afa1580156200018c573d6000803e3d6000fd5b505050506040513d601f19601f82011682018060405250810190620001b29190620004bf565b6000620001c084826200057a565b506001620001cf83826200057a565b5060ff81166080524660a052620001e562000258565b60c052505050506001600160a01b0391821660e05250600680546001600160a01b03191691831691821790556040516000907f8292fce18fa69edf4db7b94ea2e58241df0ae57f97e0a6c9b29067028bf92d76908290a350506001600160a01b03918216610100521661012052620006c4565b60007f8b73c3c69bb8fe3d512ecc4cf759cc79239f7b179b0ffacaa9a75d522b39400f60006040516200028c919062000646565b6040805191829003822060208301939093528101919091527fc89efdaa54c0f20c7adf612882df0950f5a951637e0307cdcb4c672f298b8bc660608201524660808201523060a082015260c00160405160208183030381529060405280519060200120905090565b6001600160a01b03811681146200030a57600080fd5b50565b6000806000606084860312156200032357600080fd5b83516200033081620002f4565b60208501519093506200034381620002f4565b60408501519092506200035681620002f4565b809150509250925092565b634e487b7160e01b600052604160045260246000fd5b60005b83811015620003945781810151838201526020016200037a565b50506000910152565b600060208284031215620003b057600080fd5b81516001600160401b0380821115620003c857600080fd5b818401915084601f830112620003dd57600080fd5b815181811115620003f257620003f262000361565b604051601f8201601f19908116603f011681019083821181831017156200041d576200041d62000361565b816040528281528760208487010111156200043757600080fd5b6200044a83602083016020880162000377565b979650505050505050565b63020b4b6960e51b8152600082516200047681600485016020870162000377565b650815985d5b1d60d21b6004939091019283015250600a01919050565b6130bb60f11b815260008251620004b281600285016020870162000377565b9190910160020192915050565b600060208284031215620004d257600080fd5b815160ff81168114620004e457600080fd5b9392505050565b600181811c908216806200050057607f821691505b6020821081036200052157634e487b7160e01b600052602260045260246000fd5b50919050565b601f8211156200057557600081815260208120601f850160051c81016020861015620005505750805b601f850160051c820191505b8181101562000571578281556001016200055c565b5050505b505050565b81516001600160401b0381111562000596576200059662000361565b620005ae81620005a78454620004eb565b8462000527565b602080601f831160018114620005e65760008415620005cd5750858301515b600019600386901b1c1916600185901b17855562000571565b600085815260208120601f198616915b828110156200061757888601518255948401946001909101908401620005f6565b5085821015620006365787850151600019600388901b60f8161c191681555b5050505050600190811b01905550565b60008083546200065681620004eb565b600182811680156200067157600181146200068757620006b8565b60ff1984168752821515830287019450620006b8565b8760005260208060002060005b85811015620006af5781548a82015290840190820162000694565b50505082870194505b50929695505050505050565b60805160a05160c05160e0516101005161012051611b14620007686000396000818161039d0152818161063f015281816106c5015281816111ad015281816113eb0152818161149e01526115aa01526000818161049901528181610ae2015261141a01526000818161033601528181610a4101528181610b9601528181610d910152610ee80152600061099501526000610965015260006102f50152611b146000f3fe608060405234801561001057600080fd5b506004361061021c5760003560e01c80637ecebe0011610125578063c5d664c6116100ad578063d505accf1161007c578063d505accf146104e1578063d905777e146104f4578063da55602b1461051d578063dd62ed3e14610525578063ef8b30f71461055057600080fd5b8063c5d664c614610494578063c63d75b614610370578063c6e6f592146104bb578063ce96cb77146104ce57600080fd5b806395d89b41116100f457806395d89b4114610440578063a9059cbb14610448578063b3d7f6b91461045b578063b460af941461046e578063ba0876521461048157600080fd5b80637ecebe00146103f2578063841219e5146104125780638da5cb5b1461041a57806394bf804d1461042d57600080fd5b806323b872dd116101a8578063402d267d11610177578063402d267d146103705780634cdad5061461038557806369e527da146103985780636e553f65146103bf57806370a08231146103d257600080fd5b806323b872dd146102dd578063313ce567146102f05780633644e5151461032957806338d52e0f1461033157600080fd5b8063095ea7b3116101ef578063095ea7b3146102815780630a28a477146102a457806313af4035146102b757806318160ddd146102cc57806321f56a57146102d557600080fd5b806301e1d1141461022157806306fdde031461023c57806307a2d13a1461025157806308bf795214610264575b600080fd5b610229610563565b6040519081526020015b60405180910390f35b61024461057f565b6040516102339190611743565b61022961025f366004611791565b61060d565b61026c61063a565b60408051928352602083019190915201610233565b61029461028f3660046117c6565b61074d565b6040519015158152602001610233565b6102296102b2366004611791565b6107ba565b6102ca6102c53660046117f0565b6107da565b005b61022960025481565b6102ca610874565b6102946102eb36600461180b565b610881565b6103177f000000000000000000000000000000000000000000000000000000000000000081565b60405160ff9091168152602001610233565b610229610961565b6103587f000000000000000000000000000000000000000000000000000000000000000081565b6040516001600160a01b039091168152602001610233565b61022961037e3660046117f0565b5060001990565b610229610393366004611791565b6109b7565b6103587f000000000000000000000000000000000000000000000000000000000000000081565b6102296103cd366004611847565b6109c2565b6102296103e03660046117f0565b60036020526000908152604090205481565b6102296104003660046117f0565b60056020526000908152604090205481565b610229610aca565b600654610358906001600160a01b031681565b61022961043b366004611847565b610b55565b610244610c18565b6102946104563660046117c6565b610c25565b610229610469366004611791565b610c8b565b61022961047c366004611873565b610caa565b61022961048f366004611873565b610db8565b6103587f000000000000000000000000000000000000000000000000000000000000000081565b6102296104c9366004611791565b610f0f565b6102296104dc3660046117f0565b610f2f565b6102ca6104ef3660046118af565b610f51565b6102296105023660046117f0565b6001600160a01b031660009081526003602052604090205490565b610229611195565b610229610533366004611922565b600460209081526000928352604080842090915290825290205481565b61022961055e366004611791565b6111fe565b600061056d610aca565b60075461057a9190611962565b905090565b6000805461058c90611975565b80601f01602080910402602001604051908101604052809291908181526020018280546105b890611975565b80156106055780601f106105da57610100808354040283529160200191610605565b820191906000526020600020905b8154815290600101906020018083116105e857829003601f168201915b505050505081565b60025460009080156106315761062c610624610563565b849083611209565b610633565b825b9392505050565b6000807f00000000000000000000000000000000000000000000000000000000000000006001600160a01b031663bd6d894d6040518163ffffffff1660e01b81526004016020604051808303816000875af115801561069d573d6000803e3d6000fd5b505050506040513d601f19601f820116820180604052508101906106c191906119af565b91507f00000000000000000000000000000000000000000000000000000000000000006001600160a01b031663ae9d70b06040518163ffffffff1660e01b81526004016020604051808303816000875af1158015610723573d6000803e3d6000fd5b505050506040513d601f19601f8201168201806040525081019061074791906119af565b90509091565b3360008181526004602090815260408083206001600160a01b038716808552925280832085905551919290917f8c5be1e5ebec7d5bd14f71427d1e84f3dd0314c0f7b2291e5b200ac8c7c3b925906107a89086815260200190565b60405180910390a35060015b92915050565b60025460009080156106315761062c816107d2610563565b859190611228565b6006546001600160a01b031633146108285760405162461bcd60e51b815260206004820152600c60248201526b15539055551213d49256915160a21b60448201526064015b60405180910390fd5b600680546001600160a01b0319166001600160a01b03831690811790915560405133907f8292fce18fa69edf4db7b94ea2e58241df0ae57f97e0a6c9b29067028bf92d7690600090a350565b61087c611195565b600755565b6001600160a01b038316600090815260046020908152604080832033845290915281205460001981146108dd576108b883826119c8565b6001600160a01b03861660009081526004602090815260408083203384529091529020555b6001600160a01b038516600090815260036020526040812080548592906109059084906119c8565b90915550506001600160a01b0380851660008181526003602052604090819020805487019055519091871690600080516020611abf8339815191529061094e9087815260200190565b60405180910390a3506001949350505050565b60007f000000000000000000000000000000000000000000000000000000000000000046146109925761057a611256565b507f000000000000000000000000000000000000000000000000000000000000000090565b60006107b48261060d565b60006109cd836111fe565b905080600003610a0d5760405162461bcd60e51b815260206004820152600b60248201526a5a45524f5f53484152455360a81b604482015260640161081f565b6000610a1a6002856119db565b90508060076000828254610a2e9190611962565b90915550610a6990506001600160a01b037f0000000000000000000000000000000000000000000000000000000000000000163330876112f0565b610a73838361137a565b60408051858152602081018490526001600160a01b0385169133917fdcbc1c05240f31ff3ad067ef1ee35ce4997762752e3a095284754544f4c709d7910160405180910390a3610ac381836113d4565b5092915050565b6040516370a0823160e01b81523060048201526000907f00000000000000000000000000000000000000000000000000000000000000006001600160a01b0316906370a0823190602401602060405180830381865afa158015610b31573d6000803e3d6000fd5b505050506040513d601f19601f8201168201806040525081019061057a91906119af565b6000610b6083610c8b565b90506000610b6f6002836119db565b90508060076000828254610b839190611962565b90915550610bbe90506001600160a01b037f0000000000000000000000000000000000000000000000000000000000000000163330856112f0565b610bc8838561137a565b60408051838152602081018690526001600160a01b0385169133917fdcbc1c05240f31ff3ad067ef1ee35ce4997762752e3a095284754544f4c709d7910160405180910390a3610ac381856113d4565b6001805461058c90611975565b33600090815260036020526040812080548391908390610c469084906119c8565b90915550506001600160a01b03831660008181526003602052604090819020805485019055513390600080516020611abf833981519152906107a89086815260200190565b60025460009080156106315761062c610ca2610563565b849083611228565b6000610cb5846107ba565b9050336001600160a01b03831614610d25576001600160a01b03821660009081526004602090815260408083203384529091529020546000198114610d2357610cfe82826119c8565b6001600160a01b03841660009081526004602090815260408083203384529091529020555b505b610d2f848261155b565b610d398282611669565b60408051858152602081018390526001600160a01b03808516929086169133917ffbde797d201c681b91056529119e0b02407c7bb96a4a2c75c01fc9667232c8db910160405180910390a46106336001600160a01b037f00000000000000000000000000000000000000000000000000000000000000001684866116cb565b6000336001600160a01b03831614610e28576001600160a01b03821660009081526004602090815260408083203384529091529020546000198114610e2657610e0185826119c8565b6001600160a01b03841660009081526004602090815260408083203384529091529020555b505b610e30611195565b600755610e3c846109b7565b905080600003610e7c5760405162461bcd60e51b815260206004820152600b60248201526a5a45524f5f41535345545360a81b604482015260640161081f565b610e86818561155b565b610e908285611669565b60408051828152602081018690526001600160a01b03808516929086169133917ffbde797d201c681b91056529119e0b02407c7bb96a4a2c75c01fc9667232c8db910160405180910390a46106336001600160a01b037f00000000000000000000000000000000000000000000000000000000000000001684836116cb565b60025460009080156106315761062c81610f27610563565b859190611209565b6001600160a01b0381166000908152600360205260408120546107b49061060d565b42841015610fa15760405162461bcd60e51b815260206004820152601760248201527f5045524d49545f444541444c494e455f45585049524544000000000000000000604482015260640161081f565b60006001610fad610961565b6001600160a01b038a811660008181526005602090815260409182902080546001810190915582517f6e71edae12b1b97f4d1f60370fef10105fa2faae0126114a169c64845d6126c98184015280840194909452938d166060840152608083018c905260a083019390935260c08083018b90528151808403909101815260e08301909152805192019190912061190160f01b6101008301526101028201929092526101228101919091526101420160408051601f198184030181528282528051602091820120600084529083018083525260ff871690820152606081018590526080810184905260a0016020604051602081039080840390855afa1580156110b9573d6000803e3d6000fd5b5050604051601f1901519150506001600160a01b038116158015906110ef5750876001600160a01b0316816001600160a01b0316145b61112c5760405162461bcd60e51b815260206004820152600e60248201526d24a72b20a624a22fa9a4a3a722a960911b604482015260640161081f565b6001600160a01b0390811660009081526004602090815260408083208a8516808552908352928190208990555188815291928a16917f8c5be1e5ebec7d5bd14f71427d1e84f3dd0314c0f7b2291e5b200ac8c7c3b925910160405180910390a350505050505050565b604051633af9e66960e01b81523060048201526000907f00000000000000000000000000000000000000000000000000000000000000006001600160a01b031690633af9e669906024016020604051808303816000875af1158015610b31573d6000803e3d6000fd5b60006107b482610f0f565b82820281151584158583048514171661122157600080fd5b0492915050565b82820281151584158583048514171661124057600080fd5b6001826001830304018115150290509392505050565b60007f8b73c3c69bb8fe3d512ecc4cf759cc79239f7b179b0ffacaa9a75d522b39400f600060405161128891906119fd565b6040805191829003822060208301939093528101919091527fc89efdaa54c0f20c7adf612882df0950f5a951637e0307cdcb4c672f298b8bc660608201524660808201523060a082015260c00160405160208183030381529060405280519060200120905090565b60006040516323b872dd60e01b81528460048201528360248201528260448201526020600060648360008a5af13d15601f3d11600160005114161716915050806113735760405162461bcd60e51b81526020600482015260146024820152731514905394d1915497d19493d357d1905253115160621b604482015260640161081f565b5050505050565b806002600082825461138c9190611962565b90915550506001600160a01b038216600081815260036020908152604080832080548601905551848152600080516020611abf83398151915291015b60405180910390a35050565b60405163095ea7b360e01b81526001600160a01b037f000000000000000000000000000000000000000000000000000000000000000081166004830152602482018490527f0000000000000000000000000000000000000000000000000000000000000000169063095ea7b3906044016020604051808303816000875af1158015611463573d6000803e3d6000fd5b505050506040513d601f19601f820116820180604052508101906114879190611a9c565b5060405163140e25ad60e31b8152600481018390527f00000000000000000000000000000000000000000000000000000000000000006001600160a01b03169063a0712d68906024016020604051808303816000875af11580156114ef573d6000803e3d6000fd5b505050506040513d601f19601f8201168201806040525081019061151391906119af565b156115575760405162461bcd60e51b815260206004820152601460248201527310d3d3540e8811195c1bdcda5d0811985a5b195960621b604482015260640161081f565b5050565b6000611565610aca565b90508281101561166457600061157b82856119c8565b9050806007600082825461158f91906119c8565b909155505060405163852a12e360e01b8152600481018290527f00000000000000000000000000000000000000000000000000000000000000006001600160a01b03169063852a12e3906024016020604051808303816000875af11580156115fb573d6000803e3d6000fd5b505050506040513d601f19601f8201168201806040525081019061161f91906119af565b156116625760405162461bcd60e51b815260206004820152601360248201527210d3d3540e8814995919595b4819985a5b1959606a1b604482015260640161081f565b505b505050565b6001600160a01b038216600090815260036020526040812080548392906116919084906119c8565b90915550506002805482900390556040518181526000906001600160a01b03841690600080516020611abf833981519152906020016113c8565b600060405163a9059cbb60e01b8152836004820152826024820152602060006044836000895af13d15601f3d11600160005114161716915050806116625760405162461bcd60e51b815260206004820152600f60248201526e1514905394d1915497d19052531151608a1b604482015260640161081f565b600060208083528351808285015260005b8181101561177057858101830151858201604001528201611754565b506000604082860101526040601f19601f8301168501019250505092915050565b6000602082840312156117a357600080fd5b5035919050565b80356001600160a01b03811681146117c157600080fd5b919050565b600080604083850312156117d957600080fd5b6117e2836117aa565b946020939093013593505050565b60006020828403121561180257600080fd5b610633826117aa565b60008060006060848603121561182057600080fd5b611829846117aa565b9250611837602085016117aa565b9150604084013590509250925092565b6000806040838503121561185a57600080fd5b8235915061186a602084016117aa565b90509250929050565b60008060006060848603121561188857600080fd5b83359250611898602085016117aa565b91506118a6604085016117aa565b90509250925092565b600080600080600080600060e0888a0312156118ca57600080fd5b6118d3886117aa565b96506118e1602089016117aa565b95506040880135945060608801359350608088013560ff8116811461190557600080fd5b9699959850939692959460a0840135945060c09093013592915050565b6000806040838503121561193557600080fd5b61193e836117aa565b915061186a602084016117aa565b634e487b7160e01b600052601160045260246000fd5b808201808211156107b4576107b461194c565b600181811c9082168061198957607f821691505b6020821081036119a957634e487b7160e01b600052602260045260246000fd5b50919050565b6000602082840312156119c157600080fd5b5051919050565b818103818111156107b4576107b461194c565b6000826119f857634e487b7160e01b600052601260045260246000fd5b500490565b600080835481600182811c915080831680611a1957607f831692505b60208084108203611a3857634e487b7160e01b86526022600452602486fd5b818015611a4c5760018114611a6157611a8e565b60ff1986168952841515850289019650611a8e565b60008a81526020902060005b86811015611a865781548b820152908501908301611a6d565b505084890196505b509498975050505050505050565b600060208284031215611aae57600080fd5b8151801515811461063357600080fdfeddf252ad1be2c89b69c2b068fc378daa952ba7f163c4a11628f55a4df523b3efa26469706673582212209c4f23d1f0a19b30dc4e0eaea7b7576143fe59c8093a81d47a76d8eb77440c3364736f6c63430008100033",
    "linkReferences": {}
  },
  "methodIdentifiers": {
    "DOMAIN_SEPARATOR()": "3644e515",
    "UNDERLYING()": "c5d664c6",
    "allowance(address,address)": "dd62ed3e",
    "approve(address,uint256)": "095ea7b3",
    "asset()": "38d52e0f",
    "balanceOf(address)": "70a08231",
    "cToken()": "69e527da",
    "compBalanceOfUnderlying()": "da55602b",
    "convertToAssets(uint256)": "07a2d13a",
    "convertToShares(uint256)": "c6e6f592",
    "decimals()": "313ce567",
    "deposit(uint256,address)": "6e553f65",
    "getCompStrategyInfo()": "08bf7952",
    "maxDeposit(address)": "402d267d",
    "maxMint(address)": "c63d75b6",
    "maxRedeem(address)": "d905777e",
    "maxWithdraw(address)": "ce96cb77",
    "mint(uint256,address)": "94bf804d",
    "name()": "06fdde03",
    "nonces(address)": "7ecebe00",
    "owner()": "8da5cb5b",
    "permit(address,address,uint256,uint256,uint8,bytes32,bytes32)": "d505accf",
    "previewDeposit(uint256)": "ef8b30f7",
    "previewMint(uint256)": "b3d7f6b9",
    "previewRedeem(uint256)": "4cdad506",
    "previewWithdraw(uint256)": "0a28a477",
    "redeem(uint256,address,address)": "ba087652",
    "setOwner(address)": "13af4035",
    "symbol()": "95d89b41",
    "totalAssets()": "01e1d114",
    "totalFloat()": "841219e5",
    "totalSupply()": "18160ddd",
    "transfer(address,uint256)": "a9059cbb",
    "transferFrom(address,address,uint256)": "23b872dd",
    "updateTotalStrategyHoldings()": "21f56a57",
    "withdraw(uint256,address,address)": "b460af94"
  },
  "id": 19
}